:020000040800F2
:10000000F8230020C90500086D0600086D060008E9
:100010006D0600086D0600086D060008000000006F
:10002000000000000000000000000000912B00080C
:100030006D06000800000000952C0008ED2C00085B
:100040006D0600086D0600086D0600086D060008C4
:100050006D0600086D0600086D0600086D060008B4
:100060006D0600086D0600086D0600086D060008A4
:100070006D0600086D0600086D0600086D06000894
:100080006D0600086D0600086D0600086D06000884
:100090006D0600086D0600086D0600088908000856
:1000A0006D0600086D0600086D0600086D06000864
:1000B0006D0600086D0600086D0600086D06000854
:1000C0006D0600086D0600086D0600086D06000844
:1000D0006D0600086D0600086D0600086D06000834
:1000E0006D0600086D0600086D0600086D06000824
:1000F0006D0600086D0600086D0600086D06000814
:100100006D0600086D0600086D0600086D06000803
:100110006D0600086D0600086D0600086D060008F3
:100120006D0600086D0600086D0600086D060008E3
:100130006D0600086D0600086D0600086D060008D3
:100140006D0600086D0600086D0600086D060008C3
:100150006D0600086D0600086D0600086D060008B3
:100160006D0600086D0600086D0600086D060008A3
:100170006D0600086D0600086D0600086D06000893
:100180006D0600086D06000890B484B000AF02460A
:100190000B46FA71BB714FF00003FB60BB7903F0B3
:1001A00003034FEA83034FF00F0202FA03F3FB60ED
:1001B0004FF46053C4F20103BA794FEA9202D2B20B
:1001C00010464FF46052C4F20102B9794FEA91012E
:1001D000C9B201F1020152F82110FA686FEA020275
:1001E000114000F1020243F822104FF46053C4F2B0
:1001F0000103BA794FEA9202D2B210464FF460522C
:10020000C4F20102B9794FEA9101C9B201F10201C8
:1002100052F82110FC79BA7902F003024FEA820207
:1002200004FA02F2114300F1020243F8221007F12E
:100230001007BD4690BC704780B58AB000AF4FF044
:1002400040033B624FF0020387F824304FF0000375
:1002500087F826304FF0010387F827304FF003036B
:1002600087F825304FF004004FF0010100F08AFDBF
:100270004FF002004FF0010100F05AFD07F120039A
:100280004FF48060C4F20200194601F027FF4FF4DA
:100290008060C4F202004FF006014FF0020201F04C
:1002A000F9FF4FF06403BB824FF00003FB824FF075
:1002B0006403BB614FF00003BB834FF00003BB77C7
:1002C00007F114034FF40060C4F20000194603F074
:1002D000B3F94FF060033B804FF001037B804FF098
:1002E0000003BB814FF03203BB603B464FF400601C
:1002F000C4F20000194603F059FA4FF40060C4F24A
:1003000000004FF0080103F03FFB4FF40060C4F21F
:1003100000004FF0010103F009FA4FF40060C4F24D
:1003200000004FF0010103F021FA07F12807BD4654
:1003300080BD00BF80B582B000AF4FF002004FF02B
:10034000010100F0F5FC4FF080033B604FF001032A
:100350003B714FF00003BB714FF00103FB714FF095
:1003600003037B713B464FF48060C4F202001946E0
:1003700001F0B4FE07F10807BD4680BD80B584B02A
:1003800000AF78604FF00003FB734FF01E03BB73A8
:100390004FF05A037B73786802F08CFA786802F0A9
:1003A00089FA786802F086FA786802F083FABB7BF3
:1003B0004FEA83037A68D3181A6840F28F139A427F
:1003C00001D8BB7BFB73BB7B03F10103BB73FB7BDE
:1003D000002B02D1BB7B6E2BE9D9FB7B07EE903A59
:1003E000B8EEE77A40F20003C2F20003D3ED007AE0
:1003F00067EE277AFCEEE77A17EE903ADAB240F22F
:100400000403C2F200031B78D3187B737A7B40F29B
:100410000503C2F200031B78A3F10A039A4213DB1F
:100420007A7B40F20503C2F200031B7803F10A0352
:100430009A4209DC7B7B184601F0B4FD40F20503CB
:10044000C2F200037A7B1A7007F11007BD4680BD27
:1004500080B582B000AF4FF008004FF0010100F00E
:1004600067FC4FF470433B604FF001033B714FF06A
:100470000003BB714FF00103FB714FF003037B716D
:100480003B464FF44060C4F20200194601F026FEDC
:1004900007F10807BD4680BD80B58AB000AF4FF4B4
:1004A00000633B624FF0020387F824304FF00003F3
:1004B00087F826304FF0010387F827304FF0030309
:1004C00087F825304FF001004FF0010100F05AFC91
:1004D0004FF002004FF0010100F02AFC07F1200369
:1004E0004FF48060C4F20200194601F0F7FD4FF4AA
:1004F0008060C4F202004FF00B014FF0010201F0E6
:10050000C9FE4FF47A73BB824FF00003FB824FF4B5
:100510007A73BB614FF00003BB834FF00003BB77DE
:1005200007F114034FF08040194603F085F84FF0AF
:1005300060033B804FF001037B804FF00003BB81E1
:100540004FF4FA73BB603B464FF08040194603F00E
:10055000ABF94FF080404FF0080103F031FA4FF053
:1005600080404FF0010103F0E1F84FF080404FF080
:10057000010103F0FBF807F12807BD4680BD00BF6D
:1005800080B582B000AF4FF008004FF0010100F0DD
:10059000CFFB4FF01B033B604FF001033B714FF06B
:1005A0000003BB714FF00103FB714FF003037B713C
:1005B0003B464FF44060C4F20200194601F08EFD44
:1005C00007F10807BD4680BD80B582B000AF44F298
:1005D000D053C0F600037B6040F20003C2F2000378
:1005E0003B600BE07B681A683B681A603B6803F16C
:1005F00004033B607B6803F104037B603A6840F6C8
:100600006403C2F200039A42ECD340F66403C2F2E0
:1006100000033B6007E03B6845F2AA521A603B6862
:1006200003F104033B603A680C4B9A42F3D30C4845
:100630000C494FF000028842B8BF40F8042BFFF687
:10064000FAAFDFF82400016841F47001016000F0A6
:1006500011F807F10807BD4680BD00BF64180020EF
:1006600064180020F41B002088ED00E080B400AF87
:10067000FEE700BF80B584B004AF4FF001004FF03B
:10068000000102F06FFB024641F66803C2F200036C
:100690001A6041F66803C2F200031B68002B0DD0FC
:1006A00041F66803C2F200031B6818464FF00001D0
:1006B0004FF000024FF0000302F0BCFB4FF00100CE
:1006C0004FF0000102F04EFB024641F66C03C2F20D
:1006D00000031A6041F66C03C2F200031B68002B92
:1006E0000DD041F66C03C2F200031B6818464FF0B0
:1006F00000014FF000024FF0000302F09BFB4FF0AF
:1007000001004FF0000102F02DFB024641F670039C
:10071000C2F200031A6041F67003C2F200031B68C4
:10072000002B0DD041F67003C2F200031B6818467F
:100730004FF000014FF000024FF0000302F07AFB8F
:100740004FF001004FF0000102F00CFB024641F6B1
:100750007403C2F200031A6041F67403C2F200038C
:100760001B68002B0DD041F67403C2F200031B6816
:1007700018464FF000014FF000024FF0000302F066
:1007800059FB01F095FE01F0EBFE02F0CDF802F00E
:10079000F9F8FFF781FEFFF74FFD02F049F9FFF787
:1007A000EFFEFFF7C7FD01F01BFCFFF751FE00F065
:1007B0003DFB4FF0020300934FF0000301934FF015
:1007C000000302934FF00003039340F6C510C0F6F8
:1007D000000044F25451C0F600014FF480724FF013
:1007E000000300F05FFD4FF0020300934FF00003A1
:1007F00001934FF0000302934FF00003039340F680
:100800009D10C0F6000044F25851C0F600014FF4AC
:1008100080724FF0000300F045FD4FF0030300939A
:100820004FF0000301934FF0000302934FF00003D9
:10083000039340F66120C0F6000044F25C51C0F61C
:1008400000014FF480724FF0000300F02BFD4FF0D9
:10085000010300934FF0000301934FF00003029354
:100860004FF00003039340F69D20C0F6000044F2D1
:100870006451C0F600014FF480724FF0000300F0A5
:1008800011FD00F0E3FDFEE798B500AF4FF040002A
:1008900002F010FE0346002B7ED041F66403C2F244
:1008A00000031B7803F10103DAB241F66403C2F2DC
:1008B00000031A7041F67803C2F200034FF0000201
:1008C0001A6041F66803C2F200031A6841F6780321
:1008D000C2F200031B6810464FF000011A464FF0A9
:1008E000000302F037FB41F66403C2F200031B78F9
:1008F0007F2B11D141F66C03C2F200031A6841F656
:100900007803C2F200031B6810464FF000011A463C
:100910004FF0000302F01EFB41F66403C2F2000335
:100920001B78802B11D141F67003C2F200031A68C4
:1009300041F67803C2F200031B6810464FF0000135
:100940001A464FF0000302F005FB4FF40050C4F2CA
:10095000010000F04FFC41F66403C2F200031B7873
:100960001C464FF40050C4F2010000F06FFC034637
:100970001A4641F6F013C2F2000343F8242041F670
:100980007803C2F200031B68002B01D002F044F987
:100990004FF0400002F0BAFD98BD00BF80B582B0B4
:1009A00000AF786041F66803C2F200031B68184686
:1009B0004FF000014FF0FF324FF0000302F012FB46
:1009C000F0E700BF80B582B000AF786000E000BF04
:1009D00041F66C03C2F200031B6818464FF0000199
:1009E0004FF0FF324FF0000302F0FCFA0346012BF8
:1009F00015D14FF48060C4F202004FF0800101F085
:100A00002DFC41F67403C2F200031B6818464FF038
:100A100000014FF000024FF0000302F00BFA41F624
:100A20007003C2F200031B6818464FF000014FF03C
:100A3000FF324FF0000302F0D5FA0346012BC6D176
:100A40004FF48060C4F202004FF0800101F014FC0A
:100A500041F66403C2F200034FF000021A70B6E7D9
:100A600080B582B000AF786000E000BF41F674034B
:100A7000C2F200031B6818464FF000014FF0FF322E
:100A80004FF0000302F0AEFA0346012BEDD141F620
:100A9000F010C2F20000FFF771FCE6E780B584B009
:100AA00000AF786000E000BF4FF40450C4F20100D2
:100AB00000F0A0FB00BF4FF40450C4F201004FF05F
:100AC000020100F0D1FB0346002BF4D04FF4045098
:100AD000C4F2010000F0BAFB0346FB81FA8940F240
:100AE000DC539A4244D9FA8940F23F639A423FD894
:100AF0004FF44060C4F202004FF0010101F0AEFB80
:100B00004FF44060C4F202004FF0020101F0A6FB76
:100B10004FF44060C4F202004FF0080101F09EFB68
:100B20004FF44060C4F202004FF0100101F096FB58
:100B30004FF44060C4F202004FF4805101F08EFB8C
:100B40004FF44060C4F202004FF4005101F086FB04
:100B50004FF44060C4F202004FF4804101F07EFB8C
:100B60004FF44060C4F202004FF4004101F076FB04
:100B7000FB89B3F5AF6F44D9FA8940F2DB539A424F
:100B80003FD84FF44060C4F202004FF0010101F081
:100B900065FB4FF44060C4F202004FF0020101F027
:100BA0005DFB4FF44060C4F202004FF0080101F019
:100BB00055FB4FF44060C4F202004FF0100101F009
:100BC0005BFB4FF44060C4F202004FF4805101F02F
:100BD00045FB4FF44060C4F202004FF4005101F0B5
:100BE0003DFB4FF44060C4F202004FF4804101F03D
:100BF00035FB4FF44060C4F202004FF4004101F0B5
:100C00003BFBFA8940F214539A4244D9FA8940F2E4
:100C100077539A423FD84FF44060C4F202004FF03D
:100C2000010101F01BFB4FF44060C4F202004FF0E1
:100C3000020101F013FB4FF44060C4F202004FF0D8
:100C4000080101F019FB4FF44060C4F202004FF0BC
:100C5000100101F011FB4FF44060C4F202004FF4A8
:100C6000805101F0FBFA4FF44060C4F202004FF4EF
:100C7000005101F0F3FA4FF44060C4F202004FF467
:100C8000804101F0F9FA4FF44060C4F202004FF4E1
:100C9000004101F0F1FAFB89B3F5966F7FF603AFDF
:100CA000FA8940F213539A423FF6FDAE4FF440608A
:100CB000C4F202004FF0010101F0D0FA4FF440609D
:100CC000C4F202004FF0020101F0D6FA4FF4406086
:100CD000C4F202004FF0080101F0CEFA4FF4406078
:100CE000C4F202004FF0100101F0C6FA4FF4406068
:100CF000C4F202004FF4805101F0B0FA4FF44060AA
:100D0000C4F202004FF4005101F0B6FA4FF4406013
:100D1000C4F202004FF4804101F0AEFA4FF440609B
:100D2000C4F202004FF4004101F0A6FABBE600BF96
:100D300080B483B000AF78600B46FB70FB78002B6B
:100D40000CD04FF46053C4F202034FF46052C4F26B
:100D50000202116B7A680A431A630DE04FF4605384
:100D6000C4F202034FF46052C4F20202116B7A68BB
:100D70006FEA02020A401A6307F10C07BD4680BC05
:100D8000704700BF80B483B000AF78600B46FB7043
:100D9000FB78002B0CD04FF46053C4F202034FF4E5
:100DA0006052C4F20202116C7A680A431A640DE0C0
:100DB0004FF46053C4F202034FF46052C4F20202D3
:100DC000116C7A686FEA02020A401A6407F10C0794
:100DD000BD4680BC704700BF80B483B000AF786070
:100DE0000B46FB70FB78002B0CD04FF46053C4F221
:100DF00002034FF46052C4F20202516C7A680A4353
:100E00005A640DE04FF46053C4F202034FF4605291
:100E1000C4F20202516C7A686FEA02020A405A6414
:100E200007F10C07BD4680BC704700BF80B584B099
:100E300000AF4FF480404FF00101FFF7CDFF4FF0BE
:100E400001004FF00601FFF79FF94FF040037B6070
:100E50004FF000033B724FF008037B724FF0010329
:100E6000BB7207F10403184602F088FA4FF4407091
:100E700002F05CFB4FF017033B734FF00F037B73E3
:100E80004FF00103BB734FF00103FB7307F10C0339
:100E9000184602F05FFB07F11007BD4680BD00BF9A
:100EA00080B485B000AF786039604FF00003FB601C
:100EB0004FF00003FB727B685B68FB60FB6823F00C
:100EC000407323F48073FB603B681B794FEA032275
:100ED0003B681B681343FA681343FB607B68FA683E
:100EE0005A607B689B68FB60FA684FF2FD73CCF236
:100EF000FF031340FB603B681A693B68DB681A43D9
:100F00003B689B681A433B685B794FEA4303134392
:100F1000FA681343FB607B68FA689A607B68DB6A57
:100F2000FB60FB6823F47003FB603B681B7D03F1EF
:100F3000FF33DAB2FB7A1343FB72FB7A4FEA0353B7
:100F4000FA681343FB607B68FA68DA6207F11407FA
:100F5000BD4680BC704700BF80B483B000AF7860EE
:100F60007B684FF000021A607B684FF000021A7134
:100F70007B684FF000025A717B684FF000029A6064
:100F80007B684FF00002DA607B684FF000021A6164
:100F90007B684FF001021A7507F10C07BD4680BC53
:100FA000704700BF80B485B000AF78604FF0000399
:100FB000FB604FF40C53C4F201035B68FB60FA68FA
:100FC00043F2E003CFF6FC731340FB607B681A68C2
:100FD0007B685B681A437B689B681A437B68DB68A5
:100FE0001343FA681343FB604FF40C53C4F201033C
:100FF000FA685A6007F11407BD4680BC704700BF0D
:1010000080B483B000AF78600B46FB70FB78002B98
:1010100006D07B689B6843F001027B689A6005E01C
:101020007B689B6823F001027B689A6007F10C07DC
:10103000BD4680BC704700BF80B485B000AF78600B
:10104000F970BA707B704FF00003FB604FF0000343
:10105000BB60FB78092B27D97B68DB68FB60FA78DB
:1010600013464FEA43039B18A3F11E034FF00702F8
:1010700002FA03F3BB60BB686FEA0303FA6813402C
:10108000FB607978FA7813464FEA43039B18A3F183
:101090001E0301FA03F3BB60FA68BB681343FB60ED
:1010A0007B68FA68DA6022E07B681B69FB60FA788B
:1010B00013464FEA43039B184FF0070202FA03F36B
:1010C000BB60BB686FEA0303FA681340FB60797882
:1010D000FA7813464FEA43039B1801FA03F3BB6007
:1010E000FA68BB681343FB607B68FA681A61BB78D7
:1010F000062B27D87B685B6BFB60BB7803F1FF3264
:1011000013464FEA83039B184FF01F0202FA03F3C2
:10111000BB60BB686FEA0303FA681340FB60F978B1
:10112000BB7803F1FF3213464FEA83039B1801FAA1
:1011300003F3BB60FA68BB681343FB607B68FA6823
:101140005A6351E0BB780C2B27D87B681B6BFB6084
:10115000BA7813464FEA83039B18A3F123034FF099
:101160001F0202FA03F3BB60BB686FEA0303FA686D
:101170001340FB60F978BA7813464FEA83039B1853
:10118000A3F1230301FA03F3BB60FA68BB681343BE
:10119000FB607B68FA681A6326E07B68DB6AFB60A9
:1011A000BA7813464FEA83039B18A3F141034FF02B
:1011B0001F0202FA03F3BB60BB686FEA0303FA681D
:1011C0001340FB60F978BA7813464FEA83039B1803
:1011D000A3F1410301FA03F3BB60FA68BB68134350
:1011E000FB607B68FA68DA6207F11407BD4680BCD1
:1011F000704700BF80B483B000AF78607B689B68A5
:1012000043F080427B689A6007F10C07BD4680BCC2
:10121000704700BF80B483B000AF78600B46FB70AE
:10122000FB78002B06D07B689B6843F480627B6868
:101230009A6005E07B689B6823F480627B689A6013
:1012400007F10C07BD4680BC704700BF80B483B077
:1012500000AF78607B68DB6C9BB2184607F10C0727
:10126000BD4680BC704700BF80B485B000AF7860D9
:101270000B46FB704FF00003FB737B681A68FB782A
:101280001340002B03D04FF00103FB7302E04FF03B
:101290000003FB73FB7B184607F11407BD4680BCB7
:1012A000704700BF80B58AB002AFF860B9603B609C
:1012B0001346FB80FB881846396B00F067FDB86168
:1012C000BB69002B00F0A480BB691A6BFB8803F19B
:1012D000FF334FEA8303D3187B617B6923F0070355
:1012E0007B61FB880093B869B968BA6A7B6B00F0D0
:1012F00025FC7869F9683A6801F016FC0246BB697A
:101300001A60FB6A002B02D0FB6ABA691A6001F00E
:101310008FFC41F65813C2F200031B6803F101026F
:1013200041F65813C2F200031A6041F67C03C2F280
:1013300000031B68002B0FD141F67C03C2F20003AF
:10134000BA691A6041F65813C2F200031B68012BF8
:1013500018D100F037FC15E041F66813C2F2000323
:101360001B68002B0ED141F67C03C2F200031B6800
:10137000DA6ABB6A9A4205D841F67C03C2F20003DE
:10138000BA691A60BB69DA6A41F66013C2F20003F7
:101390001B689A4206D9BB69DA6A41F66013C2F249
:1013A00000031A6041F67C13C2F200031B6803F1CC
:1013B000010241F67C13C2F200031A60BB69DA6ACB
:1013C00041F66413C2F200031B689A4206D9BB6956
:1013D000DA6A41F66413C2F200031A60BB69DA6A82
:1013E00013464FEA83039B184FEA830341F68002BA
:1013F000C2F200029A18BB6903F1040310461946B1
:1014000000F0CAFF4FF00103FB6101F027FC02E08E
:101410004FF0FF33FB61FB69012B11D141F66813DB
:10142000C2F200031B68002B0AD041F67C03C2F213
:1014300000031B68DA6ABB6A9A4201D201F0ECFB36
:10144000FB69184607F12007BD4680BD80B586B010
:1014500004AF4FF00003009341F65413C2F20003AF
:1014600001934FF0000302934FF00003039341F602
:101470001930C0F6000044F26C51C0F600014FF480
:1014800080724FF00003FFF70DFF78607B68012B3F
:1014900013D14FF0BF0080F3118841F66813C2F2F8
:1014A00000034FF001021A6041F65C13C2F2000320
:1014B0004FF000021A6001F085FB07F10807BD46F6
:1014C00080BD00BF80B400AF41F66C13C2F20003D0
:1014D0001B6803F1010241F66C13C2F200031A60AB
:1014E000BD4680BC704700BF90B583B000AF4FF0E1
:1014F00000037B6001F09CFB41F66C13C2F2000319
:101500001B6803F1FF3241F66C13C2F200031A604C
:1015100041F66C13C2F200031B68002B40F084807C
:1015200041F65813C2F200031B68002B7CD04FF029
:1015300000033B603BE041F61413C2F20003DB689A
:10154000DC6804F11803184600F088FF04F1040376
:10155000184600F083FFE26A41F66413C2F200030A
:101560001B689A4205D9E26A41F66413C2F200038D
:101570001A60E26A13464FEA83039B184FEA83031B
:1015800041F68002C2F200029A1804F104031046E8
:10159000194600F001FFE26A41F67C03C2F2000343
:1015A0001B68DB6A9A4202D34FF001033B6041F6AD
:1015B0001413C2F200031B68002BBCD141F6701358
:1015C000C2F200031B68002B18D00DE000F034F8C5
:1015D00041F67013C2F200031B6803F1FF3241F6BB
:1015E0007013C2F200031A6041F67013C2F20003D6
:1015F0001B68002BEAD14FF001033B603B68012BD5
:1016000006D041F67413C2F200031B68012B0BD104
:101610004FF001037B6041F67413C2F200034FF0F8
:1016200000021A6001F0F8FA01F018FB7B68184616
:1016300007F10C07BD4690BD80B584B000AF41F600
:101640006C13C2F200031B68002B40F0BF8041F610
:101650005C13C2F200031B6803F1010241F65C1344
:10166000C2F200031A6041F65C13C2F200031B6869
:10167000002B40D141F60C13C2F200031B68FB6043
:1016800041F61013C2F200031A6841F60C13C2F2BD
:1016900000031A6041F61013C2F20003FA681A60E0
:1016A00041F67813C2F200031B6803F1010241F610
:1016B0007813C2F200031A6041F60C13C2F2000361
:1016C0001B681B68002B07D140F20803C2F200031D
:1016D0004FF0FF321A600EE041F60C13C2F2000325
:1016E0001B68DB68DB68BB60BB685A6840F20803B4
:1016F000C2F200031A6041F65C13C2F200031A68DA
:1017000040F20803C2F200031B689A426AD341F612
:101710000C13C2F200031B681B68002B07D140F2B8
:101720000803C2F200034FF0FF321A605AE041F69C
:101730000C13C2F200031B68DB68DB68BB60BB688C
:101740005B687B6041F65C13C2F200031A687B6839
:101750009A4206D240F20803C2F200037A681A6085
:1017600040E0BB6803F10403184600F077FEBB6855
:101770009B6A002B05D0BB6803F11803184600F0E4
:101780006DFEBB68DA6A41F66413C2F200031B689F
:101790009A4206D9BB68DA6A41F66413C2F20003C2
:1017A0001A60BB68DA6A13464FEA83039B184FEA54
:1017B000830341F68002C2F200029A18BB6803F16B
:1017C00004031046194600F0E7FDA0E741F6701348
:1017D000C2F200031B6803F1010241F67013C2F26A
:1017E00000031A6007F11007BD4680BD80B483B0C6
:1017F00000AF41F66C13C2F200031B68002B07D048
:1018000041F67413C2F200034FF001021A6069E05E
:1018100041F67C03C2F200031A68D16C41F6B4139E
:10182000C2F200031B687868C31ACB18D36441F670
:10183000B413C2F200037A681A600BE041F6641335
:10184000C2F200031B6803F1FF3241F66413C2F2D7
:1018500000031A6041F66413C2F20003196841F6EE
:101860008002C2F200020B464FEA83035B184FEA84
:101870008303D3181B68002BE0D041F66413C2F237
:1018800000031A6813464FEA83039B184FEA830349
:1018900041F68002C2F200029B183B603B685B6825
:1018A0005A683B685A603B685A683B6803F1080312
:1018B0009A4204D13B685B685A683B685A603B684F
:1018C0005B68DA6841F67C03C2F200031A604FF4E9
:1018D000E843C4F2000341F67C02C2F2000212683F
:1018E000926CDA6007F10C07BD4680BC704700BF00
:1018F00080B584B000AF7860396041F67C03C2F2F5
:1019000000031B6803F118037868194600F06CFDAA
:1019100041F67C03C2F200031B6803F1040318467E
:1019200000F09CFD3B68B3F1FF3F0ED141F67C0314
:10193000C2F200031B6803F1040341F64010C2F237
:101940000000194600F028FD0AE041F65C13C2F2DF
:1019500000031A683B68D318FB60F86800F0D0F900
:1019600007F11007BD4680BD80B584B000AF786038
:101970007B68DB68DB68BB60BB6803F11803184653
:1019800000F06CFD41F66C13C2F200031B68002BE3
:101990002AD1BB6803F10403184600F05FFDBB6861
:1019A000DA6A41F66413C2F200031B689A4206D950
:1019B000BB68DA6A41F66413C2F200031A60BB68BE
:1019C000DA6A13464FEA83039B184FEA830341F612
:1019D0008002C2F200029A18BB6803F104031046A9
:1019E000194600F0D9FC09E0BB6803F1180341F681
:1019F0001410C2F20000194600F0CEFCBB68DA6A8F
:101A000041F67C03C2F200031B68DB6A9A4203D3EF
:101A10004FF00103FB6002E04FF00003FB60FB6846
:101A2000184607F11007BD4680BD00BF80B483B0E3
:101A300000AF786041F67813C2F200031A687B6841
:101A40001A6041F65C13C2F200031A687B685A60A0
:101A500007F10C07BD4680BC704700BF80B584B05D
:101A600000AF7860396001F0E3F83B681B68B3F1C0
:101A7000FF3F03D14FF00003FB6038E07B681A683A
:101A800041F67813C2F200031B689A420CD07B68BF
:101A90005A6841F65C13C2F200031B689A4203D8ED
:101AA0004FF00103FB6022E041F65C13C2F2000339
:101AB0001A687B685B68D21A3B681B689A4213D22B
:101AC0003B681A687B68596841F65C13C2F20003F0
:101AD0001B68CB1AD2183B681A607868FFF7A6FF1C
:101AE0004FF00003FB6002E04FF00103FB6001F0E8
:101AF000B5F8FB68184607F11007BD4680BD00BF6A
:101B000080B400AF41F67413C2F200034FF001023B
:101B10001A60BD4680BC704780B582B000AF786067
:101B200000E000BF00F0A0F841F68003C2F200031D
:101B30001B68012BF5D901F06FF8F2E780B584B08E
:101B400000AFF860B9607A603B60FB6803F1340372
:101B50001846B9684FF0100202F05EFBFB684FF0C8
:101B6000000283F843207B68042B02D94FF0040362
:101B70007B60FB687A68DA62FB687A685A64FB68A3
:101B800003F10403184600F0F9FBFB6803F11803A6
:101B9000184600F0F3FBFB68FA681A617B68C3F132
:101BA0000502FB689A61FB68FA685A62FB684FF0AD
:101BB00000029A64FB684FF00002DA6407F1100734
:101BC000BD4680BD80B582B000AF4FF000037B60A2
:101BD00012E07A6813464FEA83039B184FEA8303A7
:101BE00041F68002C2F200029B18184600F0A6FBE4
:101BF0007B6803F101037B607B68042BE9D941F624
:101C0000E400C2F2000000F099FB41F6F800C2F2D5
:101C1000000000F093FB41F61410C2F2000000F047
:101C20008DFB41F62810C2F2000000F087FB41F660
:101C30004010C2F2000000F081FB41F60C13C2F22A
:101C4000000341F6E402C2F200021A6041F61013EA
:101C5000C2F2000341F6F802C2F200021A6007F174
:101C60000807BD4680BD00BF80B582B000AF41F619
:101C70003C13C2F200031B68002B3DD0FFF722FC8F
:101C800041F62813C2F200031B68002B14BF002387
:101C90000123DBB27B60FFF727FC7B68002B2BD195
:101CA00000F0C6FF41F62813C2F20003DB68DB68D0
:101CB0003B603B6803F10403184600F0CFFB41F69C
:101CC0005813C2F200031B6803F1FF3241F65813A8
:101CD000C2F200031A6041F63C13C2F200031B6813
:101CE00003F1FF3241F63C13C2F200031A6000F028
:101CF000B5FF386800F084F807F10807BD4680BDDD
:101D000080B582B000AF786041F67C03C2F2000378
:101D10001B687A685A6041F65C13C2F200031B68C4
:101D20007A689A4210D241F61013C2F200031A6880
:101D300041F67C03C2F200031B6803F10403104662
:101D4000194600F051FB1DE041F60C13C2F20003EE
:101D50001A6841F67C03C2F200031B6803F1040316
:101D60001046194600F040FB40F20803C2F200039F
:101D70001B687A689A4205D240F20803C2F2000357
:101D80007A681A6007F10807BD4680BD80B584B047
:101D900000AF03463960FB804FF0500001F030FE89
:101DA0000346FB60FB68002B23D03B68002B07D168
:101DB000FB884FEA8303184601F022FE034600E049
:101DC0003B68FA681363FB681B6B002B06D1F8684D
:101DD00001F01EFE4FF00003FB600AE0FB681A6B87
:101DE000FB884FEA830310464FF0A5011A4602F024
:101DF00067F9FB68184607F11007BD4680BD00BFB4
:101E000080B582B000AF78607B681B6B184601F02C
:101E1000FFFD786801F0FCFD07F10807BD4680BDB5
:101E200080B483B000AF41F67C03C2F200031B68AC
:101E30007B607B68184607F10C07BD4680BC704785
:101E400080B584B000AF78607B68FB60FB68DA6ABD
:101E500041F67C03C2F200031B68DB6A9A4255D24A
:101E600041F67C03C2F200031B68DB6AC3F1050282
:101E7000FB689A61FB685969FB68DA6A13464FEAA6
:101E800083039B184FEA830341F68002C2F20002EB
:101E90009B18994232D1FB6803F10403184600F005
:101EA000DDFA41F67C03C2F200031B68DA6AFB68C4
:101EB000DA62FB68DA6A41F66413C2F200031B6857
:101EC0009A4206D9FB68DA6A41F66413C2F200034B
:101ED0001A60FB68DA6A13464FEA83039B184FEADD
:101EE000830341F68002C2F200029A18FB6803F1F4
:101EF00004031046194600F04FFA07E041F67C0350
:101F0000C2F200031B68DA6AFB68DA6207F11007A5
:101F1000BD4680BD80B584B000AF78607B68FB6053
:101F20007B68002B39D0FB68DA6AFB685B6C9A42ED
:101F300033D0FB6803F10403184600F08FFAFB6806
:101F40005A6CFB68DA62FB68DB6AC3F10502FB6866
:101F50009A61FB68DA6A41F66413C2F200031B68F7
:101F60009A4206D9FB68DA6A41F66413C2F20003AA
:101F70001A60FB68DA6A13464FEA83039B184FEA3C
:101F8000830341F68002C2F200029A18FB6803F153
:101F900004031046194600F0FFF907F11007BD468B
:101FA00080BD00BF80B588B000AF0346FB714FF025
:101FB0006003BB814FF00103FB814FF000033B83C3
:101FC000FB797B6107F10C034FF48060C4F20000E1
:101FD000194601F0EBFB07F12007BD4680BD00BFAD
:101FE00080B58AB000AF4FF004004FF00101FEF75A
:101FF0009FFE4FF002004FF00101FEF7C3FE4FF0CD
:1020000040033B624FF0020387F824304FF0000397
:1020100087F826304FF0010387F827304FF003038D
:1020200087F8253007F120034FF40060C4F2020066
:10203000194600F053F84FF40060C4F202004FF06C
:1020400006014FF0020200F025F940F20553BB8271
:102050004FF00003FB8240F20153BB614FF00003DD
:10206000BB834FF00003BB7707F114034FF480608C
:10207000C4F20000194601F0DFFA4FF060033B8024
:102080004FF001037B804FF00003BB814FF05A03F8
:10209000BB603B464FF48060C4F20000194601F07B
:1020A00085FB4FF48060C4F200004FF0080101F09E
:1020B0006BFC4FF48060C4F200004FF0010101F0AE
:1020C00035FB4FF48060C4F200004FF0010101F0D5
:1020D0004DFB07F12807BD4680BD00BF80B487B027
:1020E00000AF786039604FF000037B614FF0000370
:1020F0003B614FF00003FB604FF000037B6186E023
:102100007B694FF0010202FA03F33B613B681A68F6
:102110003B691340FB60FA683B699A4273D17B6864
:102120001A687B694FEA43034FF0030101FA03F396
:102130006FEA03031A407B681A607B681A683B6881
:102140001B7919467B694FEA430301FA03F31A43EB
:102150007B681A603B681B79012B03D03B681B79B5
:10216000022B34D17B689A687B694FEA43034FF0B6
:10217000030101FA03F36FEA03031A407B689A60D4
:102180007B689A683B685B7919467B694FEA430331
:1021900001FA03F31A437B689A607B685A687B698B
:1021A0009BB24FF0010101FA03F36FEA03031A40F7
:1021B0007B685A607B685A683B689B7919467B69E3
:1021C0009BB201FA03F39BB21A437B685A607B68A7
:1021D000DA687B699BB24FEA43034FF0030101FACF
:1021E00003F36FEA03031A407B68DA607B68DA68FE
:1021F0003B68DB7919467B694FEA430301FA03F335
:102200001A437B68DA607B6903F101037B617B69B8
:102210000F2B7FF675AF07F11C07BD4680BC7047DA
:1022200080B483B000AF78607B684FF6FF721A60AD
:102230007B684FF000021A717B684FF000025A7100
:102240007B684FF000029A717B684FF00002DA71F0
:1022500007F10C07BD4680BC704700BF80B483B057
:1022600000AF78600B467B807B687A881A8307F121
:102270000C07BD4680BC704780B483B000AF786067
:102280000B467B807B687A885A8307F10C07BD4632
:1022900080BC704780B485B000AF786013460A46B2
:1022A0007A807B704FF00003FB604FF00003BB604F
:1022B0007A787B8803F007034FEA830302FA03F37B
:1022C000FB607B884FEAD3039BB21A467B884FEAB8
:1022D000D3039BB219467B6801F1080153F8211022
:1022E0007B8803F007034FEA83034FF00F0000FAE7
:1022F00003F36FEA030319407B6802F1080243F815
:1023000022107B884FEAD3039BB21A467B6802F106
:10231000080253F82220FB681343BB607B884FEA16
:10232000D3039BB21A467B6802F10802B96843F8EE
:10233000221007F11407BD4680BC704780B483B0FB
:1023400000AF78607B6803F108027B685A607B68A5
:102350004FF0FF329A607B6803F108027B68DA6015
:102360007B6803F108027B681A617B684FF000020A
:102370001A6007F10C07BD4680BC704780B483B07B
:1023800000AF78607B684FF000021A6107F10C071C
:10239000BD4680BC704700BF80B485B000AF786098
:1023A00039607B685B68FB60FB685A683B685A6011
:1023B0007B685A683B689A60FB685B683A689A6019
:1023C000FB683A685A607B683A685A603B687A688A
:1023D0001A617B681B6803F101027B681A6007F1D0
:1023E0001407BD4680BC704780B485B000AF7860EC
:1023F00039603B681B68BB60BB68B3F1FF3F03D12A
:102400007B681B69FB600DE07B6803F10803FB60E0
:1024100002E0FB685B68FB60FB685B681A68BB688E
:102420009A42F6D9FB685A683B685A603B685B6819
:102430003A689A603B68FA689A60FB683A685A6042
:102440003B687A681A617B681B6803F101027B684C
:102450001A6007F11407BD4680BC704780B485B090
:1024600000AF78607B685B687A6892689A607B6886
:102470009B687A6852685A607B681B69FB60FB68DE
:102480005A687B689A4203D17B689A68FB685A60F5
:102490007B684FF000021A61FB681B6803F1FF3292
:1024A000FB681A6007F11407BD4680BC704700BF87
:1024B00080B500AF4FF46D43CEF200034FF46D4290
:1024C000CEF20002D2F8882042F47002C3F88820CD
:1024D0004FF46053C4F202034FF46052C4F202029C
:1024E000126842F001021A604FF46053C4F2020312
:1024F0004FF000029A604FF46053C4F202034FF4AD
:102500006052C4F20202126822F0847222F4803215
:102510001A604FF46053C4F2020343F21002C2F295
:1025200000425A604FF46053C4F202034FF4605209
:10253000C4F20202126822F480221A604FF460533F
:10254000C4F202034FF00002DA6000F0C1F84FF469
:102550006D43CEF200034FF000629A6080BD00BF71
:1025600080B487B000AF4FF000033B614FF0000331
:102570007B614FF00203FB604FF00003BB604FF044
:1025800002037B604FF46053C4F202039B6803F0C4
:102590000C033B613B69042B0DD0082B15D0002B9D
:1025A00069D140F20C03C2F200034FF41052C0F2A2
:1025B000F4021A6069E040F20C03C2F200034FF427
:1025C0009052C0F27A021A605FE04FF46053C4F296
:1025D00002035B6803F480034FEA9353BB604FF43C
:1025E0006053C4F202035B6803F03F037B60BB6887
:1025F000002B14D04FF49053C0F27A037A68B3FBE7
:10260000F2F24FF46053C4F20203596847F6C07304
:102610000B404FEA931303FB02F37B6113E04FF48B
:102620001053C0F2F4037A68B3FBF2F24FF4605334
:10263000C4F20203596847F6C0730B404FEA931384
:1026400003FB02F37B614FF46053C4F202035B6847
:1026500003F440334FEA134303F101034FEA43030A
:10266000FB607A69FB68B2FBF3F240F20C03C2F242
:1026700000031A6009E040F20C03C2F200034FF4B9
:102680001052C0F2F4021A6000BF4FF46053C4F25B
:1026900002039B6803F0F0034FEA131240F21003A9
:1026A000C2F200039B5CDBB23B6140F20C03C2F25E
:1026B00000031A683B6922FA03F240F20C03C2F2EB
:1026C00000031A6007F11C07BD4680BC704700BFBD
:1026D00080B483B000AF4FF000037B604FF0000385
:1026E0003B604FF46053C4F202034FF46052C4F2F3
:1026F0000202126842F480321A604FF46053C4F24E
:1027000002031B6803F400333B607B6803F10103A1
:102710007B603B68002B03D17B68B3F5A06FECD1E5
:102720004FF46053C4F202031B6803F40033002B20
:1027300003D04FF001033B6002E04FF000033B6029
:102740003B68012B40F082804FF46053C4F20203D7
:102750004FF46052C4F20202126C42F080521A64CA
:102760004FF4E043C4F200034FF4E042C4F200022D
:10277000126842F480421A604FF46053C4F20203BC
:102780004FF46052C4F2020292689A604FF46053B0
:10279000C4F202034FF46052C4F20202926842F49F
:1027A00000429A604FF46053C4F202034FF4605247
:1027B000C4F20202926842F4A0529A604FF460534D
:1027C000C4F2020345F20842C0F240725A604FF46C
:1027D0006053C4F202034FF46052C4F20202126862
:1027E00042F080721A6000BF4FF46053C4F20203DB
:1027F0001B6803F00073002BF6D04FF47053C4F243
:10280000020340F205621A604FF46053C4F20203FF
:102810004FF46052C4F20202926822F003029A60FE
:102820004FF46053C4F202034FF46052C4F2020248
:10283000926842F002029A6000BF4FF46053C4F203
:1028400002039B6803F00C03082BF6D107F10C0779
:10285000BD4680BC704700BF80B485B000AF7860D3
:1028600041F6B813C2F200031B68002B08D141F6F1
:10287000B813C2F2000342F2F832C2F200021A6048
:1028800041F6B813C2F200031B68FB6041F6B813AF
:10289000C2F200031A687B68D21841F6B813C2F27C
:1028A00000031A60FB68184607F11407BD4680BC98
:1028B000704700BF80B485B000AF78604FF014035C
:1028C000FB7329E0FB7B4FEA83037A68D218FB7B1A
:1028D00003F1FF334FEA83037968CB181968FB7B58
:1028E0004FEA83037868C3181B68C918FB7B03F1A0
:1028F00001034FEA83037868C3181B68C9184AF6B6
:10290000AB23CAF6AA23A3FB01034FEA53031360C8
:10291000FB7B03F10103FB73FB7B6D2BD2D907F12A
:102920001407BD4680BC704780B582B000AF3B46FF
:102930001846FFF775FC4FF001004FF00101FEF75C
:10294000F7F94FF480704FF00101FEF745FA4FF0B0
:1029500002033B604FF003033B714FF00003BB7178
:102960004FF00003FB714FF003037B713B464FF0C8
:102970000000C4F202001946FFF7B0FB07F1080798
:10298000BD4680BD80B58AB000AF4FF00003BB618B
:102990004FF00003FB614FF000033B624FF0000378
:1029A0007B6207F118031846FEF7FCFA4FF04073FC
:1029B0003B604FF000033B714FF001037B714FF020
:1029C0000003BB604FF00003FB604FF000033B616E
:1029D0004FF001033B753B461846FEF7BDFA3B46F8
:1029E0004FF40050C4F201001946FEF759FA4FF4B3
:1029F0000050C4F201004FF001014FF001024FF00E
:102A00000003FEF719FB4FF40050C4F201004FF031
:102A10000101FEF7FFFB4FF40050C4F201004FF03C
:102A20000101FEF7EDFA07F12807BD4680BD00BFA2
:102A300080B58CB000AF07F128031846FFF7F0FB14
:102A40004FF400704FF00101FEF7C6F94FF010038C
:102A5000BB624FF0030387F82C304FF0000387F878
:102A60002E304FF0000387F82F304FF0030387F824
:102A70002D3007F128034FF00000C4F20200194680
:102A8000FFF72CFB4FF00003BB614FF00003FB612D
:102A90004FF000033B624FF000037B6207F1180325
:102AA0001846FEF77FFA4FF040733B604FF000038B
:102AB0003B714FF001037B714FF00003BB604FF09F
:102AC0000003FB604FF000033B614FF001033B75D7
:102AD0003B461846FEF740FA3B464FF40050C4F21E
:102AE00001001946FEF7DCF94FF40450C4F201006E
:102AF0004FF004014FF001024FF00003FEF79CFA83
:102B00004FF40450C4F201004FF00101FEF782FBC4
:102B10004FF40450C4F201004FF00101FEF770FAC7
:102B200007F13007BD4680BD80B485B000AFF860C6
:102B3000B9607A60FB68A3F10403FB60FB684FF0A7
:102B400080721A60FB68A3F10403FB60BA68FB683B
:102B50001A60FB68A3F10403FB60FB684FF00002FE
:102B60001A60FB68A3F11403FB607A68FB681A60C3
:102B7000FB68A3F12403FB60FB686FF002021A609C
:102B8000FB68184607F11407BD4680BC704700BFBC
:102B9000064B1968086850F804EBB0E8F00F80F3B2
:102BA00009884FF0000080F3118870477C180020DE
:102BB00003480068006880F3088862B600DF00BF41
:102BC00008ED00E080B500AF4EF62053CEF20003D2
:102BD0004EF62052CEF20002126842F47F021A60D2
:102BE0004EF62053CEF200034EF62052CEF20002F3
:102BF000126842F07F421A6000F094F840F220031D
:102C0000C2F200034FF000021A60FFF7D1FF4FF04D
:102C10000003184680BD00BF80B400AF4EF60453D9
:102C2000CEF200034FF080521A60BD4680BC704760
:102C300080B400AF4FF0BF0080F3118840F2200352
:102C4000C2F200031B6803F1010240F22003C2F24A
:102C500000031A60BD4680BC704700BF80B400AF5F
:102C600040F22003C2F200031B6803F1FF3240F27E
:102C70002003C2F200031A6040F22003C2F20003F4
:102C80001B68002B03D14FF0000080F31188BD4674
:102C900080BC7047EFF30980134B1A6820E9F00FEE
:102CA0001EF0100F08BF20ED108A40F804ED1060F0
:102CB0002DE908404FF0BF0080F31188FEF796FD24
:102CC0004FF0000080F31188BDE8084019680868DB
:102CD00050F804EB1EF0100F08BFB0EC108AB0E8FB
:102CE000F00F80F3098870477C18002080B582B00F
:102CF00000AF4EF60453CEF200034FF080521A603C
:102D00004FF000037B604FF0BF0080F31188FEF7A7
:102D100093FC4FF0000080F3118807F10807BD46CF
:102D200080BD00BF80B400AF4EF21403CEF20003AA
:102D300040F20C02C2F20002116844F6D352C1F212
:102D40006202A2FB01024FEA921202F1FF321A6004
:102D50004EF21003CEF200034FF007021A60BD4698
:102D600080BC704780B586B000AF786039604FF0A6
:102D700000037B617B68002B56D04FF04C0000F0C5
:102D80003FFE03463B613B69002B4DD07B683A68B0
:102D900002FB03F303F10103FB60F86800F030FE6F
:102DA00003461A463B691A603B691B68002B38D002
:102DB0003B691A687B68396801FB03F3D2183B69E9
:102DC0005A603B694FF000029A633B691A683B699D
:102DD0009A603B691A687B6803F1FF33396801FB2D
:102DE00003F3D2183B69DA603B697A68DA633B69BE
:102DF0003A681A643B694FF0FF325A643B694FF0FE
:102E0000FF329A643B6903F110031846FFF796FA04
:102E10003B6903F124031846FFF790FA3B697B6195
:102E200002E0386900F0F4FD7B69184607F11807E5
:102E3000BD4680BD80B588B000AFF860B9607A60EB
:102E40003B604FF00003FB6100E000BFFFF7F0FEC6
:102E5000FB689A6BFB68DB6B9A4218D2F868B9681A
:102E60003A6800F083F9FB685B6A002B0AD0FB68C4
:102E700003F124031846FEF777FD0346012B01D129
:102E8000FFF7CAFEFFF7EAFE4FF001035DE07B6843
:102E9000002B04D1FFF7E2FE4FF0000355E0FB6981
:102EA000002B07D107F114031846FEF7BFFD4FF0C2
:102EB0000103FB61FFF7D2FEFEF704FBFFF7B8FE4C
:102EC000FB685B6CB3F1FF3F03D1FB684FF000027E
:102ED0005A64FB689B6CB3F1FF3F03D1FB684FF072
:102EE00000029A64FFF7BAFE07F1140207F1040327
:102EF00010461946FEF7B2FD0346002B1ED1F868B6
:102F000000F024FA0346002B12D0FB6803F11002F4
:102F10007B6810461946FEF7EBFCF86800F0B0F944
:102F2000FEF7E2FA0346002B8FD1FFF775FE8CE720
:102F3000F86800F0A5F9FEF7D7FA86E7F86800F020
:102F40009FF9FEF7D1FA4FF00003184607F120076A
:102F5000BD4680BD80B586B000AFF860B9607A60CC
:102F60003B604FF000033B614FF0BF0080F31188DE
:102F7000FB689A6BFB68DB6B9A4225D2F868B968EC
:102F80003A6800F0F3F8FB689B6CB3F1FF3F11D196
:102F9000FB685B6A002B13D0FB6803F1240318461F
:102FA000FEF7E2FC0346002B0AD07B684FF00102DB
:102FB0001A6005E0FB689B6C03F10102FB689A64F0
:102FC0004FF001037B6102E04FF000037B614FF0A3
:102FD000000080F311887B69184607F11807BD4689
:102FE00080BD00BF80B588B000AFF860B9607A607E
:102FF0003B604FF00003FB6100E000BFFFF718FEED
:10300000FB689B6B002B3FD0FB68DB68BB61F868FB
:10301000B96800F00DF93B68002B1ED1FB689B6B73
:1030200003F1FF32FB689A63FB681B68002B04D135
:10303000FEF7F6FE0246FB685A60FB681B69002B30
:103040001DD0FB6803F110031846FEF78DFC034604
:10305000012B14D1FFF7E0FD11E0FB68BA69DA60DB
:10306000FB685B6A002B0AD0FB6803F12403184657
:10307000FEF77AFC0346002B01D0FFF7CDFDFFF7EA
:10308000EDFD4FF001036BE07B68002B04D1FFF7EF
:10309000E5FD4FF0000363E0FB69002B07D107F16A
:1030A00010031846FEF7C2FC4FF00103FB61FFF767
:1030B000D5FDFEF707FAFFF7BBFDFB685B6CB3F1CC
:1030C000FF3F03D1FB684FF000025A64FB689B6C22
:1030D000B3F1FF3F03D1FB684FF000029A64FFF7A2
:1030E000BDFD07F1100207F1040310461946FEF773
:1030F000B5FC0346002B2CD1F86800F011F903460B
:10310000002B20D0FB681B68002B08D1FFF790FD37
:10311000FB685B681846FEF793FEFFF79FFDFB68B0
:1031200003F124027B6810461946FEF7E1FBF868BC
:1031300000F0A6F8FEF7D8F90346002B7FF45DAF48
:10314000FFF76AFD59E7F86800F09AF8FEF7CCF946
:1031500053E7F86800F094F8FEF7C6F94FF0000363
:10316000184607F12007BD4680BD00BF80B584B07A
:1031700000AFF860B9607A60FB681B6C002B0DD162
:10318000FB681B68002B48D1FB685B681846FEF79C
:10319000C1FEFB684FF000025A603EE07B68002BE6
:1031A0001AD1FB689A68FB681B6C1046B9681A460E
:1031B00000F0E4FEFB689A68FB681B6CD218FB68A1
:1031C0009A60FB689A68FB685B689A4225D3FB6843
:1031D0001A68FB689A6020E0FB68DA68FB681B6C81
:1031E0001046B9681A4600F0C9FEFB68DA68FB6849
:1031F0001B6CC3F10003D218FB68DA60FB68DA6865
:10320000FB681B689A4208D2FB685A68FB681B6C13
:10321000C3F10003D218FB68DA60FB689B6B03F113
:103220000102FB689A6307F11007BD4680BD00BF2D
:1032300080B582B000AF786039607B681B68002B76
:1032400019D07B68DA687B681B6CD2187B68DA60FF
:103250007B68DA687B685B689A4203D37B681A688C
:103260007B68DA607B68DA687B681B6C38681146BB
:103270001A4600F083FE07F10807BD4680BD00BF77
:1032800080B582B000AF7860FFF7D2FC14E07B68B5
:103290005B6A002B15D07B6803F124031846FEF708
:1032A00063FB0346002B01D0FEF72AFC7B689B6C76
:1032B00003F1FF327B689A647B689B6C002BE6DC31
:1032C00000E000BF7B684FF0FF329A64FFF7C6FC56
:1032D000FFF7AEFC14E07B681B69002B15D07B6800
:1032E00003F110031846FEF73FFB0346002B01D005
:1032F000FEF706FC7B685B6C03F1FF327B685A6467
:103300007B685B6C002BE6DC00E000BF7B684FF065
:10331000FF325A64FFF7A2FC07F10807BD4680BDE3
:1033200080B584B000AF7860FFF782FC7B689B6B50
:10333000002B14BF00230123DBB2FB60FFF78EFCE0
:10334000FB68184607F11007BD4680BD80B584B004
:1033500000AF7860FFF76CFC7B689A6B7B68DB6B77
:103360009A4214BF00230123DBB2FB60FFF776FC17
:10337000FB68184607F11007BD4680BD80B485B0D4
:1033800000AF78604FF00003FB604FF47053C4F25D
:103390000103FB607B689B79002B78D04FF470535E
:1033A000C4F201034FF47052C4F2010211687A684A
:1033B00012686FEA02020A401A604FF47053C4F2B6
:1033C00001034FF47052C4F2010251687A68126826
:1033D0006FEA02020A405A607B681B79FA68D318C8
:1033E000FB60FB68FA6811687A6812680A431A6021
:1033F0004FF47053C4F201034FF47052C4F201024F
:1034000091687A6812686FEA02020A409A604FF483
:103410007053C4F201034FF47052C4F20102D16838
:103420007A6812686FEA02020A40DA607B685B79A8
:10343000102B1AD14FF47053C4F201034FF47052A1
:10344000C4F2010291687A6812680A439A604FF4E4
:103450007053C4F201034FF47052C4F20102D168F8
:103460007A6812680A43DA601FE04FF47053C4F2BE
:103470000103FB607B685B79FA68D318FB60FB682B
:10348000FA6811687A6812680A431A600DE07B686E
:103490001B79FA68D318FB60FB68FA6811687A68D0
:1034A00012686FEA02020A401A6007F11407BD466B
:1034B00080BC704780B485B000AF78604FF00003E7
:1034C000FB734FF00003BB604FF47053C4F2010371
:1034D0001A687B681340BB604FF47053C4F2010359
:1034E0005A697B681340002B06D0BB68002B03D0C1
:1034F0004FF00103FB7302E04FF00003FB73FB7B13
:10350000184607F11407BD4680BC704780B483B0ED
:1035100000AF78604FF47053C4F201037A685A61C7
:1035200007F10C07BD4680BC704700BF80B483B074
:1035300000AF78604FF46D43CEF200037A6842F03A
:10354000BF6242F40032DA6007F10C07BD4680BC6E
:10355000704700BF80B485B000AF78604FF00003C3
:10356000FB734FF00003BB734FF00F037B737B685B
:10357000DB78002B45D04FF46D43CEF20003DB68BF
:103580006FEA030303F4E0634FEA1323FB73FB7B4F
:10359000C3F10403BB737A7BFB7B42FA03F37B73B7
:1035A0007B685B781A46BB7B02FA03F3FB737B688C
:1035B0009A787B7B1340DAB2FB7B1343FB73FB7B74
:1035C0004FEA0313FB734FF46143CEF200037A68B2
:1035D00012789B18FA7B83F800234FF46143CEF2F4
:1035E00000037A6812784FEA5212D2B279680978E9
:1035F00001F01F014FF0010000FA01F143F8221021
:1036000014E04FF46143CEF200037A6812784FEA77
:103610005212D2B27968097801F01F014FF001000F
:1036200000FA01F102F1200243F8221007F1140719
:10363000BD4680BC704700BF80B485B000AF7860E5
:1036400039604FF00003FB817B681B88FB817A683F
:103650004FF00003C4F201039A421FD07A684FF47E
:103660008063C4F201039A4218D07B68B3F1804FA3
:1036700014D07A684FF48063C4F200039A420DD0EC
:103680007A684FF40063C4F200039A4206D07A6865
:103690004FF44063C4F200039A4208D1FB8923F03F
:1036A0007003FB813B685A88FB891343FB817A686E
:1036B0004FF48053C4F200039A420FD07A684FF45B
:1036C000A053C4F200039A4208D0FB8923F440734C
:1036D000FB813B681A89FB891343FB817B68FA896C
:1036E0001A803B685A687B68DA623B681A887B6894
:1036F0001A857A684FF00003C4F201039A4206D09B
:103700007A684FF48063C4F201039A4204D13B68A3
:103710009B7A1A467B681A867B684FF001029A8270
:1037200007F11407BD4680BC704700BF80B483B06A
:1037300000AF78600B46FB70FB78002B08D07B68ED
:103740001B889BB243F080039AB27B681A8007E023
:103750007B681B889BB223F080039AB27B681A8037
:1037600007F10C07BD4680BC704700BF80B483B032
:1037700000AF78600B46FB70FB78002B08D07B68AD
:103780001B889BB243F001039AB27B681A8007E062
:103790007B681B889BB223F001039AB27B681A8076
:1037A00007F10C07BD4680BC704700BF80B485B0F0
:1037B00000AF786039604FF000037B814FF0000369
:1037C000FB814FF00003BB817B681B8C9BB223F015
:1037D00001039AB27B681A847B681B8CFB817B682F
:1037E0009B88BB817B681B8B7B817B8923F070036B
:1037F0007B817B8923F003037B813B681A887B896B
:1038000013437B81FB8923F00203FB813B689A8988
:10381000FB891343FB813B685A88FB891343FB8177
:103820007A684FF00003C4F201039A4206D07A6826
:103830004FF48063C4F201039A4223D1FB8923F041
:103840000803FB813B68DA89FB891343FB81FB8911
:1038500023F00403FB813B689A88FB891343FB81B7
:10386000BB8923F48073BB81BB8923F40073BB81C4
:103870003B681A8ABB891343BB813B685A8ABB8960
:103880001343BB817B68BA899A807B687A891A83E3
:103890003B689A687B685A637B68FA891A8407F1E7
:1038A0001407BD4680BC704780B485B000AF786017
:1038B00039604FF00003BB814FF000037B814FF074
:1038C0000003FB817B681B8C9BB223F480539AB26C
:1038D0007B681A847B681B8C7B817B689B88FB815F
:1038E0007B689B8BBB81BB8923F4E043BB81BB8995
:1038F00023F44073BB813B681B884FEA03239AB2D1
:10390000BB891343BB817B8923F400537B813B68D4
:103910009B894FEA03339AB27B8913437B813B68CF
:103920005B884FEA03339AB27B8913437B817A68C1
:103930004FF00003C4F201039A4206D07A684FF4B4
:103940008063C4F201039A420BD1FB8923F48043C4
:10395000FB813B681B8A4FEA83139AB2FB891343AE
:10396000FB817B68FA899A807B68BA899A833B6875
:103970009A687B681A647B687A891A8407F114074D
:10398000BD4680BC704700BF80B485B000AF786092
:103990000B467B804FF00003FB817B681B8BFB8118
:1039A000FB8923F00803FB81FA897B881343FB81A1
:1039B0007B68FA891A8307F11407BD4680BC7047FB
:1039C00080B485B000AF78600B467B804FF0000379
:1039D000FB817B689B8BFB81FB8923F40063FB816C
:1039E0007B884FEA03239AB2FB891343FB817B68F0
:1039F000FA899A8307F11407BD4680BC704700BF5F
:103A000040F66003C2F200030146186800F008B8EF
:103A100040F66003C2F200030146186800F0D0BC13
:103A20002DE9F04F01F10B05162D83B0064627D97D
:103A300035F0070527D4A94225D8304600F0D6FB3B
:103A4000B5F5FC7F23D2BA4F4FEAD50C07EBCC0279
:103A5000D468944200F0DE816368E268A16823F0D4
:103A600003002318CA605868916040F001025A6050
:103A7000304600F0BDFB0834204603B0BDE8F08FAF
:103A80001025A942D9D90C2434600024F4E75FEA58
:103A9000552C00F08B80BCF1040F00F255814FEAE9
:103AA000951707F1380E4FEA4E01A14F07EB810140
:103AB000CC68A14205D10CE0002A7CDAE468A1427E
:103AC00007D0636823F00300421B0F2AF4DD0EF1D8
:103AD000FF3E0EF1010C964B3C6903F1080E744554
:103AE00000F07581616821F003014A1B0F2A00F381
:103AF0005B81002AC3F814E0C3F810E069DAB1F57D
:103B0000007F80F02F81CA0803EBC2014FF001094A
:103B1000921009FA02F95A688868E16049EA0209D4
:103B2000A060C3F804908C60C46001204FEAAC042C
:103B300000FA04F0484556D819EA000F07D12CF0D6
:103B4000030C400019EA000F0CF1040CF9D007EB4C
:103B5000CC094C46E046E3689C4207D13AE1002A92
:103B600080F26281DB689C4200F03481596821F068
:103B700003014A1B0F2AF2DD1C465919D86854F874
:103B800008CF8A5045F0010542F00102CCF80C0044
:103B9000C0F808C05D6079613961C1F80CE0C1F816
:103BA00008E04A60304600F023FB65E74FEAD50E97
:103BB0004FEA4E0179E72218E3685068A16840F0A7
:103BC00001005060CB609960304600F011FB083472
:103BD00052E7611830464B6843F001024A6000F03A
:103BE00007FB083448E7BC68606820F00309A94572
:103BF00004D3C5EB09030F2B00F38D804D4A4E4BC8
:103C000011681868013104EB090B05EB000300F0A3
:103C10005A8103F580500F3020F47F6121F00F0CA2
:103C2000614630468DE8041000F0E4FAB0F1FF3F41
:103C300080469DE8041000F05281834500F20F8118
:103C4000DFF800A1DAF80030C3456344CAF8003059
:103C500000F04A811268013200F05781CBEB080B6B
:103C60005B44CAF8003018F0070100F00B81C1F185
:103C70000800C1F58053804403F1080208EB0C01F1
:103C80000805030DC3EB020B3046594600F0B2FAAB
:103C9000431C00F04681C8EB00020BEB020141F02F
:103CA0000100DAF80030C7F808805B44BC42CAF86B
:103CB0000030C8F8040015D0B9F10F0F40F2F280BF
:103CC0006168A9F10C0222F00702A01801F0010CB2
:103CD00042EA0C0E05210F2AC4F804E0416081601D
:103CE00000F21781154ABC681068834288BF1360D0
:103CF000134A11688B4288BF1360636823F0030086
:103D0000A842C5EB000301D30F2B04DC304600F0C2
:103D10006FFA0024B0E6621943F0010145F0010595
:103D2000656030465160BA6000F062FA0834A3E67C
:103D30002400002030040020C4190020C0190020F5
:103D4000BC190020C8190020BCF1140F7BD9BCF1AC
:103D5000540F00F28D804FEA153404F16E0E4FEAD5
:103D60004E01A2E6480A042872D9142800F2AE8057
:103D700000F15B094FEA490207EB8200DFF8F081AE
:103D80008368834200F081805A6822F003029142E6
:103D900002D29B689842F7D1DA68D7F80490E260C3
:103DA000A360DC609460C0E6611942F0010045F058
:103DB00001056560596119614860C1F80CE0C1F8FE
:103DC00008E08A50304600F013FA083454E6D3F87D
:103DD0000490AAE608F10108083418F0030F7FF4F4
:103DE000BAAE49461CF0030FA1F108040CF1FF3CE8
:103DF00000F0B0800968A142F4D07C684000A04285
:103E00003FF6F1AE00283FF4EEAE044200F0A7808A
:103E1000C4469CE604F108036469A34208BF0CF1A0
:103E2000020C3FF458AE17E659181C464868DB6888
:103E300054F8082F40F001004860D3609A60304683
:103E400000F0D6F918E60CF15B0E4FEA4E012CE6B5
:103E50004FEA911808F138094FEA49028CE7BC4251
:103E60003FF4EEAE424CA468626822F0030047E7DC
:103E7000BCF5AA7F1CD84FEAD53202F1770E4FEA83
:103E80004E0112E64FF48052F8E6D8F804004FEAEB
:103E9000A902012101FA02F242EA0009C8F80490DD
:103EA0001A467CE70122C8F804204446002027E790
:103EB00040F254539C4524D84FEA954000F17C0EC3
:103EC0004FEA4E01F1E503F1100CA9E654282CD875
:103ED0004FEA113202F16E094FEA49024CE7BC6821
:103EE000616821F003000BE74FEA0B50010D002938
:103EF0007FF4B0AEB8680CEB090141F001044460F6
:103F0000F0E6FC214FF07E0ECFE51A48C0F80080A5
:103F1000A9E604F10801184C304600F051FA236874
:103F2000E0E601204FF0000BBBE6B0F5AA7F06D813
:103F30004FEAD13303F177094FEA49021CE740F217
:103F4000545398420FD84FEA914000F17C094FEA50
:103F5000490211E77C6824EA00047C604EE74000D7
:103F600008F1040851E7FC224FF07E0904E700BF86
:103F70002400002030040020C81900200F2A2DE959
:103F8000F00340F2958041EA00039B0740F09280E5
:103F90000C6804604D6845608E68A2F1100386606D
:103FA000CC681D460F2DC460C3F3001601F1100448
:103FB00000F1100322D966B126681E6066685E6053
:103FC000A6689E60E668103DDE60103410330F2D49
:103FD00014D926681E6066685E60A6689E60E66802
:103FE000DE6026691E6166695E61A6699E61E6699A
:103FF000203DDE61203420330F2DEAD8A2F11003DA
:1040000023F00F0402F00F031034032B00EB04081D
:10401000214451D9A3F104090B464FEA990901EB58
:10402000890C53F8046BC1EB0C0544460CF1040CED
:10403000634544F8046BC5F3800512D02DB153F8E5
:10404000045B634544F8045B0BD01E46254656F8D6
:10405000047B45F8047B5F68331D67602C1D634556
:10406000F3D109F101039C00091902F00302444451
:10407000DAB123460D7803F8015BA218E443141962
:10408000934204F0010410D02CB111F8014F03F851
:10409000014B934209D04D781C4604F8015B8D78A2
:1040A0005D70631C02319342F5D1BDE8F0037047A7
:1040B0000446DDE70446DCE744461A46D8E700BF7D
:1040C000F0B48407034600F08E80541E002A00F0EE
:1040D0008880E507CEB211D41A46671E02F8016B3C
:1040E0001346154692070FD0002C7AD003F8016BC7
:1040F0009A073C461D4607D0013CEDE7034603F80E
:10410000016B9A071D46F7D1032C52D9CEB246EA6D
:1041100006270F2C47EA07432DD9A4F110021746B2
:104120000F2FC2F300162B606B60AB60EB6005F1E4
:10413000100216D93EB1103F136053609360D360F4
:1041400010320F2F0DD9203F02F11006136053607B
:104150009360D360136153619361D36120320F2F59
:10416000F1D8A4F1100222F00F0204F00F04103273
:10417000032C15441DD9271F3E462A46032E42F81C
:10418000043BC7F380070DD927B1043E032E42F844
:10419000043B07D91746083E47F8043B53603A1DD5
:1041A000032EF7D8231F23F00302131D04F003048A
:1041B000ED18B4B12B46C9B203F8011B2C19ED431D
:1041C0006219A34202F001050BD01DB103F8011BD7
:1041D000A34206D01A4602F8011B5970531CA34291
:1041E000F8D1F0BC7047054614468DE7704700BF14
:1041F000704700BF38B5074C0023054608462360CA
:10420000FEF72AFB431C00D038BD21680029FBD0F3
:10421000296038BDF01B002041EA00039B07F0B481
:1042200075D1032A73D90B46161F53F8045BA5F109
:10423000013727EA050717F0803F0446C6F3800CD4
:1042400031D10446032E324644F8045B2AD9BCF12E
:10425000000F0AD0194653F8045BA5F1013626EA8F
:10426000050616F0803F18D01DE01E46194656F888
:10427000045BA5F1013727EA050717F0803F12D14B
:1042800044F8045B5D68A5F10133314623EA050675
:10429000043A0B1D16F0803F05D1043A032A44F876
:1042A000045BE2D8194682B30D78013A04F8015B49
:1042B0009DB112F0010F23462BD11C462AB311F8F1
:1042C000015F013A04F8015B3DB111F8015F5D70D7
:1042D000631C013A1C46002DEFD1B2B123460021E8
:1042E00003F8011BA518E4432A19AB4202F00104AC
:1042F0000BD01CB103F8011BAB4206D01A4602F8E2
:10430000011B5970531CAB42F8D1F0BC70470446F6
:10431000C9E7234611F8015F03F8015B013A1C4627
:10432000002DCAD1D9E700BFF8B5224D0F4604468B
:10433000FFF75CFFAB685E6826F0030606F6EF70D9
:10434000C11B0A0B571E3F03B7F5805F07DB002137
:104350002046FFF74FFFAB689919884204D02046EA
:10436000FFF746FF0020F8BD79422046FFF742FFE5
:1043700001300DD0104BA8681A68F61B46F00106F4
:10438000D71B466020461F60FFF732FF0120F8BDB3
:1043900000212046FFF72EFFAB68C21A0F2ADEDD90
:1043A00006490968401A044942F0010208605A604F
:1043B000D5E700BF24000020C819002030040020E9
:1043C0002DE9F0410D460646002955D0FFF70EFFB6
:1043D00055F8041CDFF86CC1A5F1080421F00103B5
:1043E000E218DCF808005768904227F0030765D010
:1043F00011F00101576032D00021D0194068C00788
:1044000006D4DB19906800294AD0D268C260906057
:1044100043F001006060E350E1B9B3F5007F2DD3B4
:104420005A0A042A66D89809383042000CEB820EEA
:104430004449DEF80820724562D0506820F003013C
:104440008B4202D292689645F7D1D068E060A260B4
:10445000D46084603046BDE8F041FFF7C9BE55F82E
:10446000085C641B0CF10808A06840452B443FD051
:10447000E568C560A860C0E7BDE8F081DD080CEB29
:10448000C502DCF804009168E260AB10012505FA72
:1044900003F31843A160CCF804009460CC60D9E722
:1044A000294DA842B1D143F00102CCF81440CCF818
:1044B0001040E060A0606260E350CBE7FF18CB07DC
:1044C00007D455F8081C641A7F18E368A068C36015
:1044D00098601E4ACCF80840116847F001038F42EB
:1044E0006360B7D31A4A30461168FFF71DFFB1E782
:1044F000012182E7142A0CD802F15B00420095E703
:104500004B688010012505FA00F003434B6010460C
:104510009CE7542A03D8180B6E30420086E7B2F5A8
:10452000AA7F03D8D80B773042007FE740F254517E
:104530008A4203D8980C7C30420077E7FC227E2028
:1045400074E700BF240000202C0000202C04002071
:10455000C419002053490000414F000053455256F2
:104560004F000000424154544552590049444C45C3
:10457000000000000D0A0000257520256320252D70
:10458000313673203020302525202535750D0A0061
:10459000257520256320252D313673202531307572
:1045A000202533752525202535750D0A00000000CE
:1045B000257520256320252D313673202531307552
:1045C000203C312525202535750D0A0043000000CB
:1045D000CDCC0C3F3B5A0000FFFFFFFF007A030ADF
:1045E00000000000000000000102030406070809A3
:1045F000AAAAAAAA000000000000000024000020CF
:10460000240000202C0000202C000020340000207A
:10461000340000203C0000203C000020440000202A
:10462000440000204C0000204C00002054000020DA
:10463000540000205C0000205C000020640000208A
:10464000640000206C0000206C000020740000203A
:10465000740000207C0000207C00002084000020EA
:10466000840000208C0000208C000020940000209A
:10467000940000209C0000209C000020A40000204A
:10468000A4000020AC000020AC000020B4000020FA
:10469000B4000020BC000020BC000020C4000020AA
:1046A000C4000020CC000020CC000020D40000205A
:1046B000D4000020DC000020DC000020E40000200A
:1046C000E4000020EC000020EC000020F4000020BA
:1046D000F4000020FC000020FC0000200401002069
:1046E000040100200C0100200C0100201401002016
:1046F000140100201C0100201C01002024010020C6
:10470000240100202C0100202C0100203401002075
:10471000340100203C0100203C0100204401002025
:10472000440100204C0100204C01002054010020D5
:10473000540100205C0100205C0100206401002085
:10474000640100206C0100206C0100207401002035
:10475000740100207C0100207C01002084010020E5
:10476000840100208C0100208C0100209401002095
:10477000940100209C0100209C010020A401002045
:10478000A4010020AC010020AC010020B4010020F5
:10479000B4010020BC010020BC010020C4010020A5
:1047A000C4010020CC010020CC010020D401002055
:1047B000D4010020DC010020DC010020E401002005
:1047C000E4010020EC010020EC010020F4010020B5
:1047D000F4010020FC010020FC0100200402002064
:1047E000040200200C0200200C0200201402002011
:1047F000140200201C0200201C02002024020020C1
:10480000240200202C0200202C0200203402002070
:10481000340200203C0200203C0200204402002020
:10482000440200204C0200204C02002054020020D0
:10483000540200205C0200205C0200206402002080
:10484000640200206C0200206C0200207402002030
:10485000740200207C0200207C02002084020020E0
:10486000840200208C0200208C0200209402002090
:10487000940200209C0200209C020020A402002040
:10488000A4020020AC020020AC020020B4020020F0
:10489000B4020020BC020020BC020020C4020020A0
:1048A000C4020020CC020020CC020020D402002050
:1048B000D4020020DC020020DC020020E402002000
:1048C000E4020020EC020020EC020020F4020020B0
:1048D000F4020020FC020020FC020020040300205F
:1048E000040300200C0300200C030020140300200C
:1048F000140300201C0300201C03002024030020BC
:10490000240300202C0300202C030020340300206B
:10491000340300203C0300203C030020440300201B
:10492000440300204C0300204C03002054030020CB
:10493000540300205C0300205C030020640300207B
:10494000640300206C0300206C030020740300202B
:10495000740300207C0300207C03002084030020DB
:10496000840300208C0300208C030020940300208B
:10497000940300209C0300209C030020A40300203B
:10498000A4030020AC030020AC030020B4030020EB
:10499000B4030020BC030020BC030020C40300209B
:1049A000C4030020CC030020CC030020D40300204B
:1049B000D4030020DC030020DC030020E4030020FB
:1049C000E4030020EC030020EC030020F4030020AB
:1049D000F4030020FC030020FC030020040400205A
:1049E000040400200C0400200C0400201404002007
:1049F000140400201C0400201C04002000000200FD
:104A0000FFFFFFFF0000000000000000240700205F
:104A10008C070020F40700200000000000000000C8
:104A20000000000000000000000000000000000086
:104A3000000000000000000000000000CC4500085D
:104A40000000000000000000000000000000000066
:104A50000000000000000000000000000000000056
:104A60000000000000000000000000000000000046
:104A70000000000000000000000000000000000036
:104A80000000000000000000000000000000000026
:104A90000000000000000000000000000000000016
:104AA0000000000000000000000000000000000006
:104AB00001000000000000000E33CDAB34126DE6A3
:104AC000ECDE05000B00000000000000000000000C
:104AD00000000000000000000000000000000000D6
:104AE00000000000000000000000000000000000C6
:104AF00000000000000000000000000000000000B6
:104B000000000000000000000000000000000000A5
:044E30003804002022
:104E3400000000000000000000000000000000006E
:104E4400000000000000000000000000000000005E
:104E5400000000000000000000000000000000004E
:104E6400000000000000000000000000000000003E
:0400000508000000EF
:00000001FF
