:020000040800F2
:10000000082400206D0600081107000811070008E9
:100010001107000811070008110700080000000080
:10002000000000000000000000000000512F000848
:10003000110700080000000055300008AD3000082E
:100040001107000811070008110700081107000830
:100050001107000811070008110700081107000820
:100060001107000811070008110700081107000810
:100070001107000811070008110700081107000800
:1000800011070008110700081107000811070008F0
:10009000110700081107000811070008610C00088B
:1000A00011070008110700081107000811070008D0
:1000B00011070008110700081107000811070008C0
:1000C00011070008110700081107000811070008B0
:1000D00011070008110700081107000811070008A0
:1000E0001107000811070008110700081107000890
:1000F0001107000811070008110700081107000880
:10010000110700081107000811070008110700086F
:10011000110700081107000811070008110700085F
:10012000110700081107000811070008110700084F
:10013000110700081107000811070008110700083F
:10014000110700081107000811070008110700082F
:10015000110700081107000811070008110700081F
:10016000110700081107000811070008110700080F
:1001700011070008110700081107000811070008FF
:10018000110700081107000890B484B000AF0246C0
:100190000B46FA71BB714FF00003FB60BB7903F0B3
:1001A00003034FEA83034FF00F0202FA03F3FB60ED
:1001B0004FF46053C4F20103BA794FEA9202D2B20B
:1001C00010464FF46052C4F20102B9794FEA91012E
:1001D000C9B201F1020152F82110FA686FEA020275
:1001E000114000F1020243F822104FF46053C4F2B0
:1001F0000103BA794FEA9202D2B210464FF460522C
:10020000C4F20102B9794FEA9101C9B201F10201C8
:1002100052F82110FC79BA7902F003024FEA820207
:1002200004FA02F2114300F1020243F8221007F12E
:100230001007BD4690BC704780B588B000AF7860AD
:100240004FF000037B614FF00003FB774FF0140386
:10025000BB774FF09603FB744FF00003FB604FF445
:100260007A73BB61BB7F4FEA83037A68D3181A683D
:10027000BB699A4206D9BB7F4FEA83037A68D318D9
:100280001B68BB61BB7F4FEA83037A68D3181A6887
:10029000BB69A3F5FA739A4201D2BB7FFB77BB7FA0
:1002A00003F10103BB77FB7F002B02D1BB7F6B2BDC
:1002B000D8D9BB7F6A2B10D94FF0000000F02CFA80
:1002C0004FF0000000F046FA4FF0210000F060FA15
:1002D0004FF0210000F07AFA0FE04FF0210000F01B
:1002E0001BFA4FF0210000F035FA4FF0000000F04B
:1002F0004FFA4FF0000000F069FABA6945F65F3333
:10030000C0F203039A4219D8BA694FF45463C0F299
:1003100003039A4212D94FF0000000F0FDF94FF0AC
:10032000000000F017FA4FF48050C4F202004FF0C2
:10033000080102F025F90346002BECD0FB7F40F6C4
:10034000E410C2F2000097ED050A194602F07CFDA8
:1003500087ED050A786904F04BF802460B46104613
:10036000194623A3D3E9002304F096F802460B466E
:100370001046194604F0A2FA0346DBB2A3F1630368
:10038000FB74FA7C40F20003C2F200031B78A3F175
:100390000F039A4227DBFA7C40F20003C2F200030B
:1003A0001B7803F10F039A421DDCFA7C40F2000334
:1003B000C2F200031B7803F103039A4209DCFA7CC2
:1003C00040F20003C2F200031B78A3F103039A4238
:1003D00009DAFB7C184601F077FF40F20003C2F215
:1003E0000003FA7C1A7007F12007BD4680BD00BFEC
:1003F00014AE47E17A14E63F80B58AB000AF4FF003
:1004000040033B624FF0020387F824304FF00003B3
:1004100087F826304FF0010387F827304FF00303A9
:1004200087F825304FF004004FF0010100F03CFE4A
:100430004FF002004FF0010100F00CFE07F1200325
:100440004FF48060C4F20200194601F0D9FF4FF466
:100450008060C4F202004FF006014FF0020202F089
:10046000C9F84FF05A03BB824FF00003FB824FF0F4
:100470005B03BB614FF00003BB834FF00003BB770E
:1004800007F114034FF40060C4F20000194603F0B2
:1004900023FB4FF060033B804FF001037B804FF064
:1004A0000003BB814FF02303BB603B464FF4006069
:1004B000C4F20000194603F0C9FB4FF40060C4F217
:1004C00000004FF0080103F0D3FD4FF40060C4F2C8
:1004D00000004FF0010103F079FB4FF40060C4F21B
:1004E00000004FF0010103F091FB07F12807BD4622
:1004F00080BD00BF80B582B000AF4FF010004FF05C
:10050000010100F0A7FD4FF001033B604FF0010334
:100510003B714FF00003BB714FF00103FB714FF0D3
:1005200003037B713B464FF48050C4F2020019462E
:1005300001F066FF07F10807BD4680BD80B58AB0AF
:1005400000AF4FF400633B624FF0020387F82430A2
:100550004FF0000387F826304FF0010387F827306B
:100560004FF0030387F825304FF001004FF00101F1
:1005700000F09AFD4FF002004FF0010100F06AFD1B
:1005800007F120034FF48060C4F20200194601F025
:1005900037FF4FF48060C4F202004FF00B014FF0C0
:1005A000010202F027F84FF47A73BB824FF0000388
:1005B000FB824FF47A73BB614FF00003BB834FF0B3
:1005C0000003BB7707F114034FF08040194603F096
:1005D00083FA4FF060033B804FF001037B804FF0C4
:1005E0000003BB814FF4FA73BB603B464FF0804081
:1005F000194603F0CDFC4FF080404FF0080103F0A6
:1006000073FD4FF080404FF0010103F0DFFA4FF02F
:1006100080404FF0010103F0F9FA07F12807BD46C9
:1006200080BD00BF80B582B000AF4FF008004FF032
:10063000010100F00FFD4FF01B033B604FF0010381
:100640003B714FF00003BB714FF00103FB714FF0A2
:1006500003037B713B464FF44060C4F2020019462D
:1006600001F0CEFE07F10807BD4680BD80B582B01F
:1006700000AF45F2D043C0F600037B6040F20003B8
:10068000C2F200033B600BE07B681A683B681A60AB
:100690003B6803F104033B607B6803F104037B6068
:1006A0003A6840F65C03C2F200039A42ECD340F68B
:1006B0000843C2F200033B6007E03B6845F2AA52E0
:1006C0001A603B6803F104033B603A680C4B9A42A2
:1006D000F3D30C480C494FF000028842B8BF40F8F1
:1006E000042BFFF6FAAFDFF82400016841F4700133
:1006F000016000F0F3F907F10807BD4680BD00BFB7
:10070000081C00205C080020080C002088ED00E098
:1007100080B400AFFEE700BF80B588B000AF0346ED
:10072000FB714FF06003BB814FF00103FB814FF081
:1007300000033B83FB797B6107F10C034FF480607E
:10074000C4F20000194603F081FA07F12007BD4604
:1007500080BD00BF80B588B000AF0346FB714FF08D
:100760006003BB814FF00103FB814FF000033B832B
:10077000FB797B6107F10C034FF48060C4F2000049
:10078000194603F0E1FA07F12007BD4680BD00BF1E
:1007900080B588B000AF0346FB714FF06003BB81AA
:1007A0004FF00103FB814FF000033B83FB797B613A
:1007B00007F10C034FF48060C4F20000194603F007
:1007C00057FB07F12007BD4680BD00BF80B588B04C
:1007D00000AF0346FB714FF06003BB814FF0010394
:1007E000FB814FF000033B83FB797B6107F10C0336
:1007F0004FF48060C4F20000194603F0C9FB07F112
:100800002007BD4680BD00BF80B58AB000AF4FF065
:1008100004004FF0010100F01DFC4FF002004FF00A
:10082000010100F041FC4FF040033B624FF0020336
:1008300087F824304FF0000387F826304FF002038A
:1008400087F827304FF0030387F8253007F120039E
:100850004FF40060C4F20200194601F0D1FD4FF4DC
:100860000060C4F202004FF006014FF0020201F0F6
:10087000C1FE4FF480733B624FF0020387F82430CF
:100880004FF0000387F826304FF0020387F8273037
:100890004FF0030387F8253007F120034FF4006081
:1008A000C4F20200194601F0ABFD4FF05B03BB82BE
:1008B0004FF00003FB824FF05A03BB614FF000037F
:1008C000BB834FF00003BB7707F114034FF4806044
:1008D000C4F20000194603F0FFF84FF060033B80BC
:1008E0004FF001037B804FF00003BB814FF02303E7
:1008F000BB603B464FF48060C4F20000194603F031
:10090000A5F94FF48060C4F200004FF0080103F035
:10091000AFFB4FF48060C4F200004FF0010103F020
:1009200055F94FF48060C4F200004FF0010103F06C
:100930006DF907F12807BD4680BD00BF80B58AB0BC
:1009400000AF4FF004004FF0010100F083FB4FF0C7
:1009500002004FF0010100F0A7FB4FF080033B6263
:100960004FF0020387F824304FF0000387F8263059
:100970004FF0020387F827304FF0030387F8253044
:1009800007F120034FF40060C4F20200194601F0A1
:1009900037FD4FF40060C4F202004FF007014FF042
:1009A000020201F027FE4FF400733B624FF0020396
:1009B00087F824304FF0000387F826304FF0020309
:1009C00087F827304FF0030387F8253007F120031D
:1009D0004FF40060C4F20200194601F011FD4FF41B
:1009E0000060C4F202004FF009014FF0020201F072
:1009F00001FE4FF05B03BB824FF00003FB824FF020
:100A00005C03BB614FF00003BB834FF00003BB7777
:100A100007F114034FF48060C4F20000194603F09C
:100A20005BF84FF060033B804FF001037B804FF099
:100A30000003BB814FF02303BB603B464FF4806053
:100A4000C4F20000194603F07FF94FF48060C4F24D
:100A500000004FF0080103F027FB4FF48060C4F260
:100A600000004FF0010103F0B1F84FF48060C4F2D0
:100A700000004FF0010103F0C9F807F12807BD4657
:100A800080BD00BF80B582B000AF4FF010004FF0C6
:100A9000010100F0DFFA4FF004033B604FF0010367
:100AA0003B714FF00003BB714FF00103FB714FF03E
:100AB00003037B713B464FF48050C4F20200194699
:100AC00001F09EFC4FF48050C4F202004FF004018C
:100AD00001F074FD07F10807BD4680BD80B584B004
:100AE00004AF4FF001004FF0000102F01BFB024683
:100AF00040F66403C2F200031A6040F66403C2F2D7
:100B000000031B68002B0DD040F66403C2F2000303
:100B10001B6818464FF000014FF000024FF0000331
:100B200002F068FB4FF001004FF0000102F0FAFA0A
:100B3000024640F66803C2F200031A6040F66803FA
:100B4000C2F200031B68002B0DD040F66803C2F20E
:100B500000031B6818464FF000014FF000024FF0F1
:100B6000000302F047FB01F053FE01F0A9FE02F082
:100B700051F802F07DF8FFF7E1FCFFF73DFC02F0D1
:100B8000CDF8FFF74FFDFFF7B5FC01F0BBFB00F020
:100B90003DFA00BF4FF48050C4F202004FF008014C
:100BA00001F0EEFC0346002BF4D0FFF76BFFFFF7DC
:100BB0002BFEFFF7C3FE02F02DF900F0C9FA4FF04B
:100BC000030300934FF0000301934FF000030293DF
:100BD0004FF00003039340F63D60C0F6000045F27D
:100BE0005041C0F600014FF480724FF0000300F056
:100BF000EBFC4FF0010300934FF0000301934FF023
:100C0000000302934FF00003039340F67960C0F6AF
:100C1000000045F25841C0F600014FF480724FF0D9
:100C2000000300F0D1FC4FF0020300934FF00003EB
:100C300001934FF0000302934FF00003039340F63B
:100C4000B550C0F6000045F26041C0F600014FF417
:100C500080724FF0000300F0B7FC00F089FDFEE762
:100C600098B500AF4FF0400002F040FE0346002B65
:100C700072D040F65C03C2F200031B7803F101035B
:100C8000DAB240F65C03C2F200031A7040F66C035D
:100C9000C2F200034FF000021A6040F65C03C2F299
:100CA00000031B787F2B19D14FF48050C4F202004F
:100CB0004FF0010101F082FC40F66403C2F2000330
:100CC0001A6840F66C03C2F200031B6810464FF02E
:100CD00000011A464FF0000302F01CFB40F65C03D3
:100CE000C2F200031B78802B0ED14FF48050C4F267
:100CF00002004FF0010101F06FFC40F65C03C2F20C
:100D000000034FF000021A704FF40050C4F20100CB
:100D100000F002FC40F65C03C2F200031B781C46A4
:100D20004FF40050C4F2010000F022FC03461A46C2
:100D300040F6F013C2F2000343F8242040F66C039F
:100D4000C2F200031B68002B01D002F045F94FF0FE
:100D5000400002F0F7FD2CE04FF4807002F0C6FD79
:100D60000346002B25D040F66C03C2F200034FF07F
:100D700000021A6040F66803C2F200031A6840F6E7
:100D80006C03C2F200031B6810464FF000011A46C4
:100D90004FF0000302F0BEFA40F66C03C2F200030B
:100DA0001B68002B01D002F017F94FF4807002F09D
:100DB000C9FD98BD80B582B000AF786000E000BF8B
:100DC00040F66803C2F200031B6818464FF00001AA
:100DD0004FF0FF324FF0000302F0E4FA0346012B1C
:100DE000EDD14FF0320002F043FE03461A4640F6C2
:100DF0005D03C2F200031A704FF0340002F038FEB7
:100E000003461A4640F65E03C2F200031A704FF022
:100E1000330002F02DFE03461A4640F65F03C2F28D
:100E200000031A704FF0350002F022FE03461A4606
:100E300040F66003C2F200031A70C0E780B582B0CA
:100E400000AF786000E000BF40F66403C2F2000328
:100E50001B6818464FF000014FF0FF324FF00003BF
:100E600002F0A0FA0346012BEDD140F6F010C2F2D9
:100E70000000FFF7E1F9E6E780B584B000AF7860E5
:100E800000E000BF4FF40450C4F2010000F044FB46
:100E900000BF4FF40450C4F201004FF0020100F013
:100EA00075FB0346002BF4D04FF40450C4F201004C
:100EB00000F05EFB0346FB81FA8940F2DC539A4264
:100EC00024D9FA8940F23F639A421FD84FF4406018
:100ED000C4F202004FF0010101F070FB4FF44060DA
:100EE000C4F202004FF0020101F068FB4FF44060D1
:100EF000C4F202004FF0080101F060FB4FF44060C3
:100F0000C4F202004FF0100101F058FBFB89B3F569
:100F1000AF6F24D9FA8940F2DB539A421FD84FF4BD
:100F20004060C4F202004FF0010101F047FB4FF4B2
:100F30004060C4F202004FF0020101F03FFB4FF4A9
:100F40004060C4F202004FF0080101F037FB4FF49B
:100F50004060C4F202004FF0100101F03DFBFA893D
:100F600040F214539A4224D9FA8940F277539A42B4
:100F70001FD84FF44060C4F202004FF0010101F0AD
:100F80001DFB4FF44060C4F202004FF0020101F07B
:100F900015FB4FF44060C4F202004FF0080101F06D
:100FA0001BFB4FF44060C4F202004FF0100101F04F
:100FB00013FBFB89B3F5966F7FF663AFFA8940F2B6
:100FC00013539A423FF65DAF4FF44060C4F2020003
:100FD0004FF0010101F0F2FA4FF44060C4F2020058
:100FE0004FF0020101F0F8FA4FF44060C4F2020041
:100FF0004FF0080101F0F0FA4FF44060C4F2020033
:101000004FF0100101F0E8FA3BE700BF80B582B075
:1010100000AF4FF010004FF0010100F01BF84FF04F
:1010200008033B604FF000033B714FF00003BB71BE
:101030004FF00103FB714FF003037B713B464FF40C
:101040008050C4F20200194601F0DAF907F10807EE
:10105000BD4680BD80B483B000AF78600B46FB70A6
:10106000FB78002B0CD04FF46053C4F202034FF412
:101070006052C4F20202116B7A680A431A630DE0EF
:101080004FF46053C4F202034FF46052C4F2020200
:10109000116B7A686FEA02020A401A6307F10C07C3
:1010A000BD4680BC704700BF80B483B000AF78609D
:1010B0000B46FB70FB78002B0CD04FF46053C4F24E
:1010C00002034FF46052C4F20202116C7A680A43C0
:1010D0001A640DE04FF46053C4F202034FF46052FF
:1010E000C4F20202116C7A686FEA02020A401A64C2
:1010F00007F10C07BD4680BC704700BF80B483B0C9
:1011000000AF78600B46FB70FB78002B0CD04FF4DF
:101110006053C4F202034FF46052C4F20202516CF5
:101120007A680A435A640DE04FF46053C4F2020334
:101130004FF46052C4F20202516C7A686FEA020204
:101140000A405A6407F10C07BD4680BC704700BFD7
:1011500080B584B000AF4FF480404FF00101FFF73D
:10116000CDFF4FF001004FF00601FFF70DF84FF0F3
:1011700040037B604FF000033B724FF008037B722B
:101180004FF00103BB7207F10403184602F012FB93
:101190004FF4407002F0E6FB4FF017033B734FF043
:1011A0000F037B734FF00103BB734FF00103FB731D
:1011B00007F10C03184602F0E9FB07F11007BD46E2
:1011C00080BD00BF80B485B000AF786039604FF05B
:1011D0000003FB604FF00003FB727B685B68FB6001
:1011E000FB6823F0407323F48073FB603B681B793A
:1011F0004FEA03223B681B681343FA681343FB6002
:101200007B68FA685A607B689B68FB60FA684FF2FB
:10121000FD73CCF2FF031340FB603B681A693B6827
:10122000DB681A433B689B681A433B685B794FEA6B
:1012300043031343FA681343FB607B68FA689A60C0
:101240007B68DB6AFB60FB6823F47003FB603B6830
:101250001B7D03F1FF33DAB2FB7A1343FB72FB7A97
:101260004FEA0353FA681343FB607B68FA68DA625B
:1012700007F11407BD4680BC704700BF80B483B03F
:1012800000AF78607B684FF000021A607B684FF017
:1012900000021A717B684FF000025A717B684FF0B0
:1012A00000029A607B684FF00002DA607B684FF0C2
:1012B00000021A617B684FF001021A7507F10C07F2
:1012C000BD4680BC704700BF80B485B000AF786079
:1012D0004FF00003FB604FF40C53C4F201035B6852
:1012E000FB60FA6843F2E003CFF6FC731340FB6047
:1012F0007B681A687B685B681A437B689B681A4343
:101300007B68DB681343FA681343FB604FF40C53AC
:10131000C4F20103FA685A6007F11407BD4680BCA5
:10132000704700BF80B483B000AF78600B46FB709D
:10133000FB78002B06D07B689B6843F001027B683A
:101340009A6005E07B689B6823F001027B689A60E5
:1013500007F10C07BD4680BC704700BF80B485B064
:1013600000AF7860F970BA707B704FF00003FB60DB
:101370004FF00003BB60FB78092B27D97B68DB6843
:10138000FB60FA7813464FEA43039B18A3F11E0350
:101390004FF0070202FA03F3BB60BB686FEA030376
:1013A000FA681340FB607978FA7813464FEA4303F2
:1013B0009B18A3F11E0301FA03F3BB60FA68BB6834
:1013C0001343FB607B68FA68DA6022E07B681B6984
:1013D000FB60FA7813464FEA43039B184FF007026D
:1013E00002FA03F3BB60BB686FEA0303FA681340B9
:1013F000FB607978FA7813464FEA43039B1801FAA9
:1014000003F3BB60FA68BB681343FB607B68FA6850
:101410001A61BB78062B27D87B685B6BFB60BB78B7
:1014200003F1FF3213464FEA83039B184FF01F026C
:1014300002FA03F3BB60BB686FEA0303FA68134068
:10144000FB60F978BB7803F1FF3213464FEA830360
:101450009B1801FA03F3BB60FA68BB681343FB6097
:101460007B68FA685A6351E0BB780C2B27D87B68FD
:101470001B6BFB60BA7813464FEA83039B18A3F1FA
:1014800023034FF01F0202FA03F3BB60BB686FEA4D
:101490000303FA681340FB60F978BA7813464FEA01
:1014A00083039B18A3F1230301FA03F3BB60FA68DB
:1014B000BB681343FB607B68FA681A6326E07B68AD
:1014C000DB6AFB60BA7813464FEA83039B18A3F1EB
:1014D00041034FF01F0202FA03F3BB60BB686FEADF
:1014E0000303FA681340FB60F978BA7813464FEAB1
:1014F00083039B18A3F1410301FA03F3BB60FA686D
:10150000BB681343FB607B68FA68DA6207F1140773
:10151000BD4680BC704700BF80B483B000AF786028
:101520007B689B6843F080427B689A6007F10C07F8
:10153000BD4680BC704700BF80B483B000AF786008
:101540000B46FB70FB78002B06D07B689B6843F44E
:1015500080627B689A6005E07B689B6823F4806208
:101560007B689A6007F10C07BD4680BC704700BFDE
:1015700080B483B000AF78607B68DB6C9BB21846A8
:1015800007F10C07BD4680BC704700BF80B485B032
:1015900000AF78600B46FB704FF00003FB737B6875
:1015A0001A68FB781340002B03D04FF00103FB7344
:1015B00002E04FF00003FB73FB7B184607F11407B2
:1015C000BD4680BC704700BF80B58AB002AFF860EE
:1015D000B9603B601346FB80FB881846396B00F00E
:1015E00067FDB861BB69002B00F0A480BB691A6B72
:1015F000FB8803F1FF334FEA8303D3187B617B69D8
:1016000023F007037B61FB880093B869B968BA6A65
:101610007B6B00F025FC7869F9683A6801F064FC9E
:101620000246BB691A60FB6A002B02D0FB6ABA69EA
:101630001A6001F0DDFC40F64C13C2F200031B6897
:1016400003F1010240F64C13C2F200031A6040F6A7
:101650007003C2F200031B68002B0FD140F6700329
:10166000C2F20003BA691A6040F64C13C2F20003DA
:101670001B68012B18D100F037FC15E040F65C1315
:10168000C2F200031B68002B0ED140F67003C2F2B9
:1016900000031B68DA6ABB6A9A4205D840F67003F9
:1016A000C2F20003BA691A60BB69DA6A40F65413E1
:1016B000C2F200031B689A4206D9BB69DA6A40F697
:1016C0005413C2F200031A6040F67013C2F2000312
:1016D0001B6803F1010240F67013C2F200031A60A6
:1016E000BB69DA6A40F65813C2F200031B689A42DB
:1016F00006D9BB69DA6A40F65813C2F200031A60D1
:10170000BB69DA6A13464FEA83039B184FEA8303E7
:1017100040F67402C2F200029A18BB6903F1040396
:101720001046194600F0E8FF4FF00103FB6101F09D
:1017300075FC02E04FF0FF33FB61FB69012B11D117
:1017400040F65C13C2F200031B68002B0AD040F67F
:101750007003C2F200031B68DA6ABB6A9A4201D2C4
:1017600001F03AFCFB69184607F12007BD4680BD31
:1017700080B586B004AF4FF00003009340F64813E5
:10178000C2F2000301934FF0000302934FF00003F5
:10179000039341F63D60C0F6000045F26C41C0F68F
:1017A00000014FF480724FF00003FFF70DFF7860E7
:1017B0007B68012B13D14FF0BF0080F3118840F6F6
:1017C0005C13C2F200034FF001021A6040F650139E
:1017D000C2F200034FF000021A6001F0D3FB07F1E0
:1017E0000807BD4680BD00BF80B400AF40F660135F
:1017F000C2F200031B6803F1010240F66013C2F25B
:1018000000031A60BD4680BC704700BF90B583B02E
:1018100000AF4FF000037B6001F0EAFB40F660137D
:10182000C2F200031B6803F1FF3240F66013C2F2FC
:1018300000031A6040F66013C2F200031B68002B1D
:1018400040F0848040F64C13C2F200031B68002B6A
:101850007CD04FF000033B603BE040F60813C2F23F
:101860000003DB68DC6804F11803184600F0A6FFEB
:1018700004F10403184600F0A1FFE26A40F6581391
:10188000C2F200031B689A4205D9E26A40F6581377
:10189000C2F200031A60E26A13464FEA83039B1800
:1018A0004FEA830340F67402C2F200029A1804F170
:1018B00004031046194600F01FFFE26A40F6700369
:1018C000C2F200031B68DB6A9A4202D34FF00103A5
:1018D0003B6040F60813C2F200031B68002BBCD12A
:1018E00040F66413C2F200031B68002B18D00DE011
:1018F00000F034F840F66413C2F200031B6803F1F1
:10190000FF3240F66413C2F200031A6040F664131B
:10191000C2F200031B68002BEAD14FF001033B60C9
:101920003B68012B06D040F66813C2F200031B6827
:10193000012B0BD14FF001037B6040F66813C2F21C
:1019400000034FF000021A6001F046FB01F066FB55
:101950007B68184607F10C07BD4690BD80B584B082
:1019600000AF40F66013C2F200031B68002B40F08A
:10197000BF8040F65013C2F200031B6803F101025E
:1019800040F65013C2F200031A6040F65013C2F240
:1019900000031B68002B40D140F60013C2F2000385
:1019A0001B68FB6040F60413C2F200031A6840F69D
:1019B0000013C2F200031A6040F60413C2F20003DF
:1019C000FA681A6040F66C13C2F200031B6803F158
:1019D000010240F66C13C2F200031A6040F60013D5
:1019E000C2F200031B681B68002B07D140F20403FE
:1019F000C2F200034FF0FF321A600EE040F600130F
:101A0000C2F200031B68DB68DB68BB60BB685A6816
:101A100040F20403C2F200031A6040F65013C2F20F
:101A200000031A6840F20403C2F200031B689A42E2
:101A30006AD340F60013C2F200031B681B68002B38
:101A400007D140F20403C2F200034FF0FF321A60E4
:101A50005AE040F60013C2F200031B68DB68DB6843
:101A6000BB60BB685B687B6040F65013C2F200034A
:101A70001A687B689A4206D240F20403C2F200035D
:101A80007A681A6040E0BB6803F10403184600F06E
:101A900095FEBB689B6A002B05D0BB6803F1180359
:101AA000184600F08BFEBB68DA6A40F65813C2F2A3
:101AB00000031B689A4206D9BB68DA6A40F65813DD
:101AC000C2F200031A60BB68DA6A13464FEA830366
:101AD0009B184FEA830340F67402C2F200029A1880
:101AE000BB6803F104031046194600F005FEA0E7A9
:101AF00040F66413C2F200031B6803F1010240F6D2
:101B00006413C2F200031A6007F11007BD4680BDDE
:101B100080B483B000AF40F66013C2F200031B68CC
:101B2000002B07D040F66813C2F200034FF0010209
:101B30001A6069E040F67003C2F200031A68D16CC3
:101B400040F6A813C2F200031B687868C31ACB18CA
:101B5000D36440F6A813C2F200037A681A600BE05F
:101B600040F65813C2F200031B6803F1FF3240F63F
:101B70005813C2F200031A6040F65813C2F2000371
:101B8000196840F67402C2F200020B464FEA830362
:101B90005B184FEA8303D3181B68002BE0D040F694
:101BA0005813C2F200031A6813464FEA83039B18C6
:101BB0004FEA830340F67402C2F200029B183B60B6
:101BC0003B685B685A683B685A603B685A683B6888
:101BD00003F108039A4204D13B685B685A683B688A
:101BE0005A603B685B68DA6840F67003C2F2000333
:101BF0001A604FF4E843C4F2000340F67002C2F2E8
:101C000000021268926CDA6007F10C07BD4680BCD6
:101C1000704700BF80B584B000AF7860396040F68F
:101C20007003C2F200031B6803F1180378681946B9
:101C300000F08AFD40F67003C2F200031B6803F156
:101C40000403184600F0BAFD3B68B3F1FF3F0ED124
:101C500040F67003C2F200031B6803F1040340F670
:101C60003410C2F20000194600F046FD0AE040F6CA
:101C70005013C2F200031A683B68D318FB60F8687F
:101C800000F0D0F907F11007BD4680BD80B584B0E3
:101C900000AF78607B68DB68DB68BB60BB6803F122
:101CA0001803184600F08AFD40F66013C2F20003E4
:101CB0001B68002B2AD1BB6803F10403184600F00F
:101CC0007DFDBB68DA6A40F65813C2F200031B6858
:101CD0009A4206D9BB68DA6A40F65813C2F200038A
:101CE0001A60BB68DA6A13464FEA83039B184FEA0F
:101CF000830340F67402C2F200029A18BB6803F133
:101D000004031046194600F0F7FC09E0BB6803F134
:101D1000180340F60810C2F20000194600F0ECFC6F
:101D2000BB68DA6A40F67003C2F200031B68DB6A24
:101D30009A4203D34FF00103FB6002E04FF000032F
:101D4000FB60FB68184607F11007BD4680BD00BF69
:101D500080B483B000AF786040F66C13C2F2000329
:101D60001A687B681A6040F65013C2F200031A68C2
:101D70007B685A6007F10C07BD4680BC704700BF06
:101D800080B584B000AF7860396001F031F93B680C
:101D90001B68B3F1FF3F03D14FF00003FB6038E055
:101DA0007B681A6840F66C13C2F200031B689A4203
:101DB0000CD07B685A6840F65013C2F200031B68CF
:101DC0009A4203D84FF00103FB6022E040F6501323
:101DD000C2F200031A687B685B68D21A3B681B6812
:101DE0009A4213D23B681A687B68596840F65013D0
:101DF000C2F200031B68CB1AD2183B681A607868DD
:101E0000FFF7A6FF4FF00003FB6002E04FF0010375
:101E1000FB6001F003F9FB68184607F11007BD46A7
:101E200080BD00BF80B400AF40F66813C2F200036B
:101E30004FF001021A60BD4680BC704780B582B089
:101E400000AF786000E000BF00F0A0F840F6740337
:101E5000C2F200031B68012BF5D901F0BDF8F2E7CF
:101E600080B584B000AFF860B9607A603B60FB6811
:101E700003F134031846B9684FF0100203F04AF931
:101E8000FB684FF0000283F843207B68042B02D9E3
:101E90004FF004037B60FB687A68DA62FB687A685B
:101EA0005A64FB6803F10403184600F017FCFB6852
:101EB00003F11803184600F011FCFB68FA681A6178
:101EC0007B68C3F10502FB689A61FB68FA685A6295
:101ED000FB684FF000029A64FB684FF00002DA647E
:101EE00007F11007BD4680BD80B582B000AF4FF04E
:101EF00000037B6012E07A6813464FEA83039B1865
:101F00004FEA830340F67402C2F200029B1818469F
:101F100000F0C4FB7B6803F101037B607B68042B4A
:101F2000E9D940F6D800C2F2000000F0B7FB40F655
:101F3000EC00C2F2000000F0B1FB40F60810C2F263
:101F4000000000F0ABFB40F61C10C2F2000000F0F5
:101F5000A5FB40F63410C2F2000000F09FFB40F6F3
:101F60000013C2F2000340F6D802C2F200021A6067
:101F700040F60413C2F2000340F6EC02C2F2000283
:101F80001A6007F10807BD4680BD00BF80B582B06A
:101F900000AF40F63013C2F200031B68002B3DD0A7
:101FA000FFF722FC40F61C13C2F200031B68002B53
:101FB00014BF00230123DBB27B60FFF727FC7B68A3
:101FC000002B2BD101F014F840F61C13C2F20003D1
:101FD000DB68DB683B603B6803F10403184600F0F4
:101FE000EDFB40F64C13C2F200031B6803F1FF3215
:101FF00040F64C13C2F200031A6040F63013C2F2EE
:1020000000031B6803F1FF3240F63013C2F20003F5
:102010001A6001F003F8386800F084F807F1080747
:10202000BD4680BD80B582B000AF786040F67003D9
:10203000C2F200031B687A685A6040F65013C2F27D
:1020400000031B687A689A4210D240F60413C2F269
:1020500000031A6840F67003C2F200031B6803F124
:1020600004031046194600F06FFB1DE040F6001314
:10207000C2F200031A6840F67003C2F200031B6844
:1020800003F104031046194600F05EFB40F204031E
:10209000C2F200031B687A689A4205D240F2040338
:1020A000C2F200037A681A6007F10807BD4680BDD6
:1020B00080B584B000AF03463960FB804FF050001C
:1020C00002F01CFC0346FB60FB68002B23D03B683E
:1020D000002B07D1FB884FEA8303184602F00EFC61
:1020E000034600E03B68FA681363FB681B6B002B38
:1020F00006D1F86802F00AFC4FF00003FB600AE02A
:10210000FB681A6BFB884FEA830310464FF0A5016A
:102110001A4602F053FFFB68184607F11007BD4648
:1021200080BD00BF80B582B000AF78607B681B6B5C
:10213000184602F0EBFB786802F0E8FB07F10807AD
:10214000BD4680BD80B483B000AF40F67003C2F2DC
:1021500000031B687B607B68184607F10C07BD46CF
:1021600080BC704780B584B000AF78607B68FB604E
:10217000FB68DA6A40F67003C2F200031B68DB6A90
:102180009A4255D240F67003C2F200031B68DB6A24
:10219000C3F10502FB689A61FB685969FB68DA6A5A
:1021A00013464FEA83039B184FEA830340F67402F9
:1021B000C2F200029B18994232D1FB6803F104037A
:1021C000184600F0FBFA40F67003C2F200031B68E9
:1021D000DA6AFB68DA62FB68DA6A40F65813C2F220
:1021E00000031B689A4206D9FB68DA6A40F6581366
:1021F000C2F200031A60FB68DA6A13464FEA8303EF
:102200009B184FEA830340F67402C2F200029A1848
:10221000FB6803F104031046194600F06DFA07E06D
:1022200040F67003C2F200031B68DA6AFB68DA62E8
:1022300007F11007BD4680BD80B584B000AF78605F
:102240007B68FB607B68002B39D0FB68DA6AFB682F
:102250005B6C9A4233D0FB6803F10403184600F02C
:10226000ADFAFB685A6CFB68DA62FB68DB6AC3F1A3
:102270000502FB689A61FB68DA6A40F65813C2F2FD
:1022800000031B689A4206D9FB68DA6A40F65813C5
:10229000C2F200031A60FB68DA6A13464FEA83034E
:1022A0009B184FEA830340F67402C2F200029A18A8
:1022B000FB6803F104031046194600F01DFA07F10C
:1022C0001007BD4680BD00BF80B588B000AF034693
:1022D000FB714FF06003BB814FF00103FB814FF0B6
:1022E00000033B83FB797B6107F10C034FF49040C3
:1022F000C4F20100194601F0A9FC07F12007BD4610
:1023000080BD00BF80B58AB000AF4FF002004FF033
:102310000101FEF79FFE4FF480204FF00101FEF710
:10232000EDFE4FF400733B624FF0020387F8243058
:102330004FF0000387F826304FF0010387F827306D
:102340004FF0030387F8253007F120034FF4806036
:10235000C4F20200194600F053F84FF48060C4F252
:1023600002004FF009014FF0030200F043F940F280
:102370000773BB824FF00003FB8240F23A73BB61EC
:102380004FF00003BB834FF00003BB7707F114034A
:102390004FF49040C4F20100194601F09DFB4FF04C
:1023A00060033B804FF001037B804FF00003BB8153
:1023B0004FF09603BB603B464FF49040C4F20100DF
:1023C000194601F043FC4FF49040C4F201004FF075
:1023D000080101F04DFE4FF49040C4F201004FF0AF
:1023E000010101F0F3FB4FF49040C4F201004FF003
:1023F000010101F00BFC07F12807BD4680BD00BFBD
:1024000080B487B000AF786039604FF000037B6123
:102410004FF000033B614FF00003FB604FF00003FF
:102420007B6186E07B694FF0010202FA03F33B61B6
:102430003B681A683B691340FB60FA683B699A4243
:1024400073D17B681A687B694FEA43034FF003013D
:1024500001FA03F36FEA03031A407B681A607B6892
:102460001A683B681B7919467B694FEA430301FAF6
:1024700003F31A437B681A603B681B79012B03D076
:102480003B681B79022B34D17B689A687B694FEAE1
:1024900043034FF0030101FA03F36FEA03031A4009
:1024A0007B689A607B689A683B685B7919467B69B0
:1024B0004FEA430301FA03F31A437B689A607B688F
:1024C0005A687B699BB24FF0010101FA03F36FEA8E
:1024D00003031A407B685A607B685A683B689B79A3
:1024E00019467B699BB201FA03F39BB21A437B68DE
:1024F0005A607B68DA687B699BB24FEA43034FF00E
:10250000030101FA03F36FEA03031A407B68DA6000
:102510007B68DA683B68DB7919467B694FEA4303DD
:1025200001FA03F31A437B68DA607B6903F1010364
:102530007B617B690F2B7FF675AF07F11C07BD46EA
:1025400080BC704780B483B000AF78607B684FF682
:10255000FF721A607B684FF000021A717B684FF0BF
:1025600000025A717B684FF000029A717B684FF04D
:102570000002DA7107F10C07BD4680BC704700BF4E
:1025800080B485B000AF78600B467B804FF00003CD
:10259000FB737B681A697B881340002B03D04FF0D4
:1025A0000103FB7302E04FF00003FB73FB7B184653
:1025B00007F11407BD4680BC704700BF80B483B0EC
:1025C00000AF78600B467B807B687A881A8307F1BE
:1025D0000C07BD4680BC704780B483B000AF786004
:1025E0000B467B807B687A885A8307F10C07BD46CF
:1025F00080BC704780B485B000AF786013460A464F
:102600007A807B704FF00003FB604FF00003BB60EB
:102610007A787B8803F007034FEA830302FA03F317
:10262000FB607B884FEAD3039BB21A467B884FEA54
:10263000D3039BB219467B6801F1080153F82110BE
:102640007B8803F007034FEA83034FF00F0000FA83
:1026500003F36FEA030319407B6802F1080243F8B1
:1026600022107B884FEAD3039BB21A467B6802F1A3
:10267000080253F82220FB681343BB607B884FEAB3
:10268000D3039BB21A467B6802F10802B96843F88B
:10269000221007F11407BD4680BC704780B483B098
:1026A00000AF78607B6803F108027B685A607B6842
:1026B0004FF0FF329A607B6803F108027B68DA60B2
:1026C0007B6803F108027B681A617B684FF00002A7
:1026D0001A6007F10C07BD4680BC704780B483B018
:1026E00000AF78607B684FF000021A6107F10C07B9
:1026F000BD4680BC704700BF80B485B000AF786035
:1027000039607B685B68FB60FB685A683B685A60AD
:102710007B685A683B689A60FB685B683A689A60B5
:10272000FB683A685A607B683A685A603B687A6826
:102730001A617B681B6803F101027B681A6007F16C
:102740001407BD4680BC704780B485B000AF786088
:1027500039603B681B68BB60BB68B3F1FF3F03D1C6
:102760007B681B69FB600DE07B6803F10803FB607D
:1027700002E0FB685B68FB60FB685B681A68BB682B
:102780009A42F6D9FB685A683B685A603B685B68B6
:102790003A689A603B68FA689A60FB683A685A60DF
:1027A0003B687A681A617B681B6803F101027B68E9
:1027B0001A6007F11407BD4680BC704780B485B02D
:1027C00000AF78607B685B687A6892689A607B6823
:1027D0009B687A6852685A607B681B69FB60FB687B
:1027E0005A687B689A4203D17B689A68FB685A6092
:1027F0007B684FF000021A61FB681B6803F1FF322F
:10280000FB681A6007F11407BD4680BC704700BF23
:1028100080B500AF4FF46D43CEF200034FF46D422C
:10282000CEF20002D2F8882042F47002C3F8882069
:102830004FF46053C4F202034FF46052C4F2020238
:10284000126842F001021A604FF46053C4F20203AE
:102850004FF000029A604FF46053C4F202034FF449
:102860006052C4F20202126822F0847222F48032B2
:102870001A604FF46053C4F2020343F21002C2F232
:1028800000425A604FF46053C4F202034FF46052A6
:10289000C4F20202126822F480221A604FF46053DC
:1028A000C4F202034FF00002DA6000F0C1F84FF406
:1028B0006D43CEF200034FF000629A6080BD00BF0E
:1028C00080B487B000AF4FF000033B614FF00003CE
:1028D0007B614FF00203FB604FF00003BB604FF0E1
:1028E00002037B604FF46053C4F202039B6803F061
:1028F0000C033B613B69042B0DD0082B15D0002B3A
:1029000069D140F20803C2F200034FF41052C0F242
:10291000F4021A6069E040F20803C2F200034FF4C7
:102920009052C0F27A021A605FE04FF46053C4F232
:1029300002035B6803F480034FEA9353BB604FF4D8
:102940006053C4F202035B6803F03F037B60BB6823
:10295000002B14D04FF49053C0F27A037A68B3FB83
:10296000F2F24FF46053C4F20203596847F6C073A1
:102970000B404FEA931303FB02F37B6113E04FF428
:102980001053C0F2F4037A68B3FBF2F24FF46053D1
:10299000C4F20203596847F6C0730B404FEA931321
:1029A00003FB02F37B614FF46053C4F202035B68E4
:1029B00003F440334FEA134303F101034FEA4303A7
:1029C000FB607A69FB68B2FBF3F240F20803C2F2E3
:1029D00000031A6009E040F20803C2F200034FF45A
:1029E0001052C0F2F4021A6000BF4FF46053C4F2F8
:1029F00002039B6803F0F0034FEA131240F20C034A
:102A0000C2F200039B5CDBB23B6140F20803C2F2FE
:102A100000031A683B6922FA03F240F20803C2F28B
:102A200000031A6007F11C07BD4680BC704700BF59
:102A300080B483B000AF4FF000037B604FF0000321
:102A40003B604FF46053C4F202034FF46052C4F28F
:102A50000202126842F480321A604FF46053C4F2EA
:102A600002031B6803F400333B607B6803F101033E
:102A70007B603B68002B03D17B68B3F5A06FECD182
:102A80004FF46053C4F202031B6803F40033002BBD
:102A900003D04FF001033B6002E04FF000033B60C6
:102AA0003B68012B40F082804FF46053C4F2020374
:102AB0004FF46052C4F20202126C42F080521A6467
:102AC0004FF4E043C4F200034FF4E042C4F20002CA
:102AD000126842F480421A604FF46053C4F2020359
:102AE0004FF46052C4F2020292689A604FF460534D
:102AF000C4F202034FF46052C4F20202926842F43C
:102B000000429A604FF46053C4F202034FF46052E3
:102B1000C4F20202926842F4A0529A604FF46053E9
:102B2000C4F2020345F20842C0F240725A604FF408
:102B30006053C4F202034FF46052C4F202021268FE
:102B400042F080721A6000BF4FF46053C4F2020377
:102B50001B6803F00073002BF6D04FF47053C4F2DF
:102B6000020340F205621A604FF46053C4F202039C
:102B70004FF46052C4F20202926822F003029A609B
:102B80004FF46053C4F202034FF46052C4F20202E5
:102B9000926842F002029A6000BF4FF46053C4F2A0
:102BA00002039B6803F00C03082BF6D107F10C0716
:102BB000BD4680BC704700BF80B485B000AF786070
:102BC00040F6AC13C2F200031B68002B08D140F69C
:102BD000AC13C2F2000340F60842C2F200021A60CF
:102BE00040F6AC13C2F200031B68FB6040F6AC1366
:102BF000C2F200031A687B68D21840F6AC13C2F226
:102C000000031A60FB68184607F11407BD4680BC34
:102C1000704700BF80B582B000AF3B461846FFF753
:102C200091FC4FF001004FF00101FEF713FA4FF451
:102C300080704FF00101FEF761FA4FF002033B6034
:102C40004FF003033B714FF00003BB714FF00003E3
:102C5000FB714FF003037B713B464FF00000C4F261
:102C600002001946FFF7CCFB07F10807BD4680BDFF
:102C700080B58AB000AF4FF00003BB614FF0000396
:102C8000FB614FF000033B624FF000037B6207F1F2
:102C900018031846FEF718FB4FF040733B604FF0E7
:102CA00000033B714FF001037B714FF00003BB60E9
:102CB0004FF00003FB604FF000033B614FF0010356
:102CC0003B753B461846FEF7D9FA3B464FF4005099
:102CD000C4F201001946FEF775FA4FF40050C4F231
:102CE00001004FF001014FF001024FF00003FEF729
:102CF00035FB4FF40050C4F201004FF00101FEF724
:102D00001BFC4FF40050C4F201004FF00101FEF72C
:102D100009FB07F12807BD4680BD00BF80B58CB018
:102D200000AF07F128031846FFF70CFC4FF40070C2
:102D30004FF00101FEF7E2F94FF01003BB624FF0D4
:102D4000030387F82C304FF0000387F82E304FF044
:102D5000000387F82F304FF0030387F82D3007F179
:102D600028034FF00000C4F202001946FFF748FBA9
:102D70004FF00003BB614FF00003FB614FF0000315
:102D80003B624FF000037B6207F118031846FEF721
:102D90009BFA4FF040733B604FF000033B714FF0E4
:102DA00001037B714FF00003BB604FF00003FB6039
:102DB0004FF000033B614FF001033B753B46184663
:102DC000FEF75CFA3B464FF40050C4F2010019468E
:102DD000FEF7F8F94FF40450C4F201004FF004017B
:102DE0004FF001024FF00003FEF7B8FA4FF4045021
:102DF000C4F201004FF00101FEF79EFB4FF40450B6
:102E0000C4F201004FF00101FEF78CFA07F1300720
:102E1000BD4680BD80B400AF40F6E413C2F20003AB
:102E20004FF000029A6040F6E413C2F200034FF044
:102E300000025A6040F6E413C2F200034FF07E52E3
:102E40001A60BD4680BC704780B485B000AFF860A2
:102E500087ED020A0B46FB71FB79C3F1400240F695
:102E6000F033C2F200031A60FB6893ED007A40F67B
:102E7000F033C2F20003D3ED007AF8EEE77A27EEE2
:102E8000277AFB68D3ED016A40F60043C2F20003E3
:102E9000D3ED007AF8EEE77A66EEA77A37EE277A76
:102EA000FB68D3ED026A40F6F833C2F20003D3EDBB
:102EB000007AF8EEE77A66EEA77A77EE277A40F6A0
:102EC000FC33C2F20003C3ED007A40F6FC33C2F2D9
:102ED00000031B6807EE903AB0EE670A07F114078B
:102EE000BD4680BC704700BF80B485B000AFF860BD
:102EF000B9607A60FB68A3F10403FB60FB684FF0E4
:102F000080721A60FB68A3F10403FB60BA68FB6877
:102F10001A60FB68A3F10403FB60FB684FF000023A
:102F20001A60FB68A3F11403FB607A68FB681A60FF
:102F3000FB68A3F12403FB60FB686FF002021A60D8
:102F4000FB68184607F11407BD4680BC704700BFF8
:102F5000064B1968086850F804EBB0E8F00F80F3EE
:102F600009884FF0000080F3118870477008002036
:102F700003480068006880F3088862B600DF00BF7D
:102F800008ED00E080B500AF4EF62053CEF200030E
:102F90004EF62052CEF20002126842F47F021A600E
:102FA0004EF62053CEF200034EF62052CEF200022F
:102FB000126842F07F421A6000F094F840F21C035D
:102FC000C2F200034FF000021A60FFF7D1FF4FF08A
:102FD0000003184680BD00BF80B400AF4EF6045316
:102FE000CEF200034FF080521A60BD4680BC70479D
:102FF00080B400AF4FF0BF0080F3118840F21C0393
:10300000C2F200031B6803F1010240F21C03C2F28A
:1030100000031A60BD4680BC704700BF80B400AF9B
:1030200040F21C03C2F200031B6803F1FF3240F2BE
:103030001C03C2F200031A6040F21C03C2F2000338
:103040001B68002B03D14FF0000080F31188BD46B0
:1030500080BC7047EFF30980134B1A6820E9F00F2A
:103060001EF0100F08BF20ED108A40F804ED10602C
:103070002DE908404FF0BF0080F31188FEF748FDAE
:103080004FF0000080F31188BDE808401968086817
:1030900050F804EB1EF0100F08BFB0EC108AB0E837
:1030A000F00F80F3098870477008002080B582B067
:1030B00000AF4EF60453CEF200034FF080521A6078
:1030C0004FF000037B604FF0BF0080F31188FEF7E4
:1030D00045FC4FF0000080F3118807F10807BD465A
:1030E00080BD00BF80B400AF4EF21403CEF20003E7
:1030F00040F20802C2F20002116844F6D352C1F253
:103100006202A2FB01024FEA921202F1FF321A6040
:103110004EF21003CEF200034FF007021A60BD46D4
:1031200080BC704780B586B000AF786039604FF0E2
:1031300000037B617B68002B56D04FF04C0001F000
:10314000DDFB03463B613B69002B4DD07B683A6851
:1031500002FB03F303F10103FB60F86801F0CEFB0F
:1031600003461A463B691A603B691B68002B38D03E
:103170003B691A687B68396801FB03F3D2183B6925
:103180005A603B694FF000029A633B691A683B69D9
:103190009A603B691A687B6803F1FF33396801FB69
:1031A00003F3D2183B69DA603B697A68DA633B69FA
:1031B0003A681A643B694FF0FF325A643B694FF03A
:1031C000FF329A643B6903F110031846FFF766FA71
:1031D0003B6903F124031846FFF760FA3B697B6102
:1031E00002E0386901F092FB7B69184607F1180785
:1031F000BD4680BD80B588B000AFF860B9607A6028
:103200003B604FF00003FB6100E000BFFFF7F0FE02
:10321000FB689A6BFB68DB6B9A4218D2F868B96856
:103220003A6800F083F9FB685B6A002B0AD0FB6800
:1032300003F124031846FEF729FD0346012B01D1B3
:10324000FFF7CAFEFFF7EAFE4FF001035DE07B687F
:10325000002B04D1FFF7E2FE4FF0000355E0FB69BD
:10326000002B07D107F114031846FEF771FD4FF04C
:103270000103FB61FFF7D2FEFEF7B6FAFFF7B8FED7
:10328000FB685B6CB3F1FF3F03D1FB684FF00002BA
:103290005A64FB689B6CB3F1FF3F03D1FB684FF0AE
:1032A00000029A64FFF7BAFE07F1140207F1040363
:1032B00010461946FEF764FD0346002B1ED1F86840
:1032C00000F024FA0346002B12D0FB6803F1100231
:1032D0007B6810461946FEF79DFCF86800F0B0F9CF
:1032E000FEF794FA0346002B8FD1FFF775FE8CE7AB
:1032F000F86800F0A5F9FEF789FA86E7F86800F0AB
:103300009FF9FEF783FA4FF00003184607F12007F4
:10331000BD4680BD80B586B000AFF860B9607A6008
:103320003B604FF000033B614FF0BF0080F311881A
:10333000FB689A6BFB68DB6B9A4225D2F868B96828
:103340003A6800F0F3F8FB689B6CB3F1FF3F11D1D2
:10335000FB685B6A002B13D0FB6803F1240318465B
:10336000FEF794FC0346002B0AD07B684FF0010265
:103370001A6005E0FB689B6C03F10102FB689A642C
:103380004FF001037B6102E04FF000037B614FF0DF
:10339000000080F311887B69184607F11807BD46C5
:1033A00080BD00BF80B588B000AFF860B9607A60BA
:1033B0003B604FF00003FB6100E000BFFFF718FE29
:1033C000FB689B6B002B3FD0FB68DB68BB61F86838
:1033D000B96800F00DF93B68002B1ED1FB689B6BB0
:1033E00003F1FF32FB689A63FB681B68002B04D172
:1033F000FEF7A8FE0246FB685A60FB681B69002BBB
:103400001DD0FB6803F110031846FEF73FFC03468E
:10341000012B14D1FFF7E0FD11E0FB68BA69DA6017
:10342000FB685B6A002B0AD0FB6803F12403184693
:10343000FEF72CFC0346002B01D0FFF7CDFDFFF774
:10344000EDFD4FF001036BE07B68002B04D1FFF72B
:10345000E5FD4FF0000363E0FB69002B07D107F1A6
:1034600010031846FEF774FC4FF00103FB61FFF7F1
:10347000D5FDFEF7B9F9FFF7BBFDFB685B6CB3F157
:10348000FF3F03D1FB684FF000025A64FB689B6C5E
:10349000B3F1FF3F03D1FB684FF000029A64FFF7DE
:1034A000BDFD07F1100207F1040310461946FEF7AF
:1034B00067FC0346002B2CD1F86800F011F9034695
:1034C000002B20D0FB681B68002B08D1FFF790FD74
:1034D000FB685B681846FEF745FEFFF79FFDFB683B
:1034E00003F124027B6810461946FEF793FBF86847
:1034F00000F0A6F8FEF78AF90346002B7FF45DAFD3
:10350000FFF76AFD59E7F86800F09AF8FEF77EF9D0
:1035100053E7F86800F094F8FEF778F94FF00003ED
:10352000184607F12007BD4680BD00BF80B584B0B6
:1035300000AFF860B9607A60FB681B6C002B0DD19E
:10354000FB681B68002B48D1FB685B681846FEF7D8
:1035500073FEFB684FF000025A603EE07B68002B70
:103560001AD1FB689A68FB681B6C1046B9681A464A
:1035700001F082FCFB689A68FB681B6CD218FB6840
:103580009A60FB689A68FB685B689A4225D3FB687F
:103590001A68FB689A6020E0FB68DA68FB681B6CBD
:1035A0001046B9681A4601F067FCFB68DA68FB68E8
:1035B0001B6CC3F10003D218FB68DA60FB68DA68A1
:1035C000FB681B689A4208D2FB685A68FB681B6C50
:1035D000C3F10003D218FB68DA60FB689B6B03F150
:1035E0000102FB689A6307F11007BD4680BD00BF6A
:1035F00080B582B000AF786039607B681B68002BB3
:1036000019D07B68DA687B681B6CD2187B68DA603B
:103610007B68DA687B685B689A4203D37B681A68C8
:103620007B68DA607B68DA687B681B6C38681146F7
:103630001A4601F021FC07F10807BD4680BD00BF16
:1036400080B582B000AF7860FFF7D2FC14E07B68F1
:103650005B6A002B15D07B6803F124031846FEF744
:1036600015FB0346002B01D0FEF7DCFB7B689B6C4F
:1036700003F1FF327B689A647B689B6C002BE6DC6D
:1036800000E000BF7B684FF0FF329A64FFF7C6FC92
:10369000FFF7AEFC14E07B681B69002B15D07B683C
:1036A00003F110031846FEF7F1FA0346002B01D090
:1036B000FEF7B8FB7B685B6C03F1FF327B685A64F2
:1036C0007B685B6C002BE6DC00E000BF7B684FF0A2
:1036D000FF325A64FFF7A2FC07F10807BD4680BD20
:1036E00080B584B000AF7860FFF782FC7B689B6B8D
:1036F000002B14BF00230123DBB2FB60FFF78EFC1D
:10370000FB68184607F11007BD4680BD80B584B040
:1037100000AF7860FFF76CFC7B689A6B7B68DB6BB3
:103720009A4214BF00230123DBB2FB60FFF776FC53
:10373000FB68184607F11007BD4680BD80B483B012
:1037400000AF78607B689B899BB2184607F10C0735
:10375000BD4680BC704700BF80B483B000AF7860C6
:103760000B467B807B687A889A8107F10C07BD46FF
:1037700080BC704780B485B000AF78600B467B801A
:103780004FF00003FB737B681B899AB27B88134060
:103790009BB2002B03D04FF00103FB7302E04FF00C
:1037A0000003FB73FB7B184607F11407BD4680BC82
:1037B000704700BF80B485B000AF78604FF0000361
:1037C000FB604FF47053C4F20103FB607B689B798C
:1037D000002B78D04FF47053C4F201034FF47052B1
:1037E000C4F2010211687A6812686FEA02020A40A4
:1037F0001A604FF47053C4F201034FF47052C4F2D4
:10380000010251687A6812686FEA02020A405A603F
:103810007B681B79FA68D318FB60FB68FA6811684B
:103820007A6812680A431A604FF47053C4F20103B5
:103830004FF47052C4F2010291687A6812686FEA1C
:1038400002020A409A604FF47053C4F201034FF42D
:103850007052C4F20102D1687A6812686FEA0202FB
:103860000A40DA607B685B79102B1AD14FF47053F1
:10387000C4F201034FF47052C4F2010291687A68F5
:1038800012680A439A604FF47053C4F201034FF474
:103890007052C4F20102D1687A6812680A43DA6091
:1038A0001FE04FF47053C4F20103FB607B685B7947
:1038B000FA68D318FB60FB68FA6811687A681268C6
:1038C0000A431A600DE07B681B79FA68D318FB6025
:1038D000FB68FA6811687A6812686FEA02020A40A7
:1038E0001A6007F11407BD4680BC704780B485B0EC
:1038F00000AF78604FF00003FB734FF00003BB6034
:103900004FF47053C4F201031A687B681340BB6024
:103910004FF47053C4F201035A697B681340002BC3
:1039200006D0BB68002B03D04FF00103FB7302E00D
:103930004FF00003FB73FB7B184607F11407BD46ED
:1039400080BC704780B483B000AF78604FF4705390
:10395000C4F201037A685A6107F10C07BD4680BCC6
:10396000704700BF80B483B000AF78604FF46D4300
:10397000CEF200037A6842F0BF6242F40032DA60AD
:1039800007F10C07BD4680BC704700BF80B485B00E
:1039900000AF78604FF00003FB734FF00003BB7380
:1039A0004FF00F037B737B68DB78002B45D04FF41F
:1039B0006D43CEF20003DB686FEA030303F4E063B8
:1039C0004FEA1323FB73FB7BC3F10403BB737A7BC6
:1039D000FB7B42FA03F37B737B685B781A46BB7B05
:1039E00002FA03F3FB737B689A787B7B1340DAB2AD
:1039F000FB7B1343FB73FB7B4FEA0313FB734FF417
:103A00006143CEF200037A6812789B18FA7B83F840
:103A100000234FF46143CEF200037A6812784FEA34
:103A20005212D2B27968097801F01F014FF00100FB
:103A300000FA01F143F8221014E04FF46143CEF292
:103A400000037A6812784FEA5212D2B27968097884
:103A500001F01F014FF0010000FA01F102F1200214
:103A600043F8221007F11407BD4680BC704700BF21
:103A700080B582B000AF0346FB7100BF4FF46050C9
:103A8000C4F200004FF00201FFF774FE0346002B62
:103A9000F4D0FB799BB24FF46050C4F20000194699
:103AA000FFF75AFE00BF4FF46050C4F200004FF021
:103AB0000101FFF75FFE0346002BF4D04FF4605086
:103AC000C4F20000FFF73AFE0346DBB2184607F1E6
:103AD0000807BD4680BD00BF80B485B000AF7860E8
:103AE00039604FF00003FB817B681B88FB817A689B
:103AF0004FF00003C4F201039A421FD07A684FF4DA
:103B00008063C4F201039A4218D07B68B3F1804FFE
:103B100014D07A684FF48063C4F200039A420DD047
:103B20007A684FF40063C4F200039A4206D07A68C0
:103B30004FF44063C4F200039A4208D1FB8923F09A
:103B40007003FB813B685A88FB891343FB817A68C9
:103B50004FF48053C4F200039A420FD07A684FF4B6
:103B6000A053C4F200039A4208D0FB8923F44073A7
:103B7000FB813B681A89FB891343FB817B68FA89C7
:103B80001A803B685A687B68DA623B681A887B68EF
:103B90001A857A684FF00003C4F201039A4206D0F6
:103BA0007A684FF48063C4F201039A4204D13B68FF
:103BB0009B7A1A467B681A867B684FF001029A82CC
:103BC00007F11407BD4680BC704700BF80B483B0C6
:103BD00000AF78600B46FB70FB78002B08D07B6849
:103BE0001B889BB243F080039AB27B681A8007E07F
:103BF0007B681B889BB223F080039AB27B681A8093
:103C000007F10C07BD4680BC704700BF80B483B08D
:103C100000AF78600B46FB70FB78002B08D07B6808
:103C20001B889BB243F001039AB27B681A8007E0BD
:103C30007B681B889BB223F001039AB27B681A80D1
:103C400007F10C07BD4680BC704700BF80B485B04B
:103C500000AF786039604FF000037B814FF00003C4
:103C6000FB814FF00003BB817B681B8C9BB223F070
:103C700001039AB27B681A847B681B8CFB817B688A
:103C80009B88BB817B681B8B7B817B8923F07003C6
:103C90007B817B8923F003037B813B681A887B89C6
:103CA00013437B81FB8923F00203FB813B689A89E4
:103CB000FB891343FB813B685A88FB891343FB81D3
:103CC0007A684FF00003C4F201039A4206D07A6882
:103CD0004FF48063C4F201039A4223D1FB8923F09D
:103CE0000803FB813B68DA89FB891343FB81FB896D
:103CF00023F00403FB813B689A88FB891343FB8113
:103D0000BB8923F48073BB81BB8923F40073BB811F
:103D10003B681A8ABB891343BB813B685A8ABB89BB
:103D20001343BB817B68BA899A807B687A891A833E
:103D30003B689A687B685A637B68FA891A8407F142
:103D40001407BD4680BC704780B485B000AF786072
:103D500039604FF000037B814FF00003FB814FF08F
:103D60000003BB817B681B8C9BB223F010039AB2CB
:103D70007B681A847B681B8CFB817B689B88BB817A
:103D80007B681B8B7B817B8923F4E0437B817B8970
:103D900023F440737B813B681B884FEA03239AB26C
:103DA0007B8913437B81FB8923F02003FB813B68E4
:103DB0009B894FEA03139AB2FB891343FB813B684B
:103DC0005B884FEA03139AB2FB891343FB817A683D
:103DD0004FF00003C4F201039A4206D07A684FF410
:103DE0008063C4F201039A422FD1FB8923F0800340
:103DF000FB813B68DB894FEA03139AB2FB891343CB
:103E0000FB81FB8923F04003FB813B689B884FEAE1
:103E100003139AB2FB891343FB81BB8923F48063AC
:103E2000BB81BB8923F40063BB813B681B8A4FEADB
:103E300083039AB2BB891343BB813B685B8A4FEA19
:103E400083039AB2BB891343BB817B68BA899A808A
:103E50007B687A891A833B689A687B689A637B6877
:103E6000FA891A8407F11407BD4680BC704700BF69
:103E700080B485B000AF786039604FF000037B817B
:103E80004FF00003FB814FF00003BB817B681B8C6C
:103E90009BB223F480739AB27B681A847B681B8C74
:103EA000FB817B689B88BB817B689B8B7B817B894B
:103EB00023F070037B817B8923F003037B813B68C4
:103EC0001A887B8913437B81FB8923F40073FB8170
:103ED0003B689B894FEA03239AB2FB891343FB811A
:103EE0003B685B884FEA03239AB2FB891343FB814B
:103EF0007A684FF00003C4F201039A4206D07A6850
:103F00004FF48063C4F201039A422FD1FB8923F45A
:103F10000063FB813B68DB894FEA03239AB2FB898C
:103F20001343FB81FB8923F48063FB813B689B88FF
:103F30004FEA03239AB2FB891343FB81BB8923F425
:103F40008053BB81BB8923F40053BB813B681B8A30
:103F50004FEA03139AB2BB891343BB813B685B8A68
:103F60004FEA03139AB2BB891343BB817B68BA89BA
:103F70009A807B687A899A833B689A687B68DA635F
:103F80007B68FA891A8407F11407BD4680BC704724
:103F900080B485B000AF786039604FF00003BB811A
:103FA0004FF000037B814FF00003FB817B681B8C8B
:103FB0009BB223F480539AB27B681A847B681B8C73
:103FC0007B817B689B88FB817B689B8BBB81BB89EA
:103FD00023F4E043BB81BB8923F44073BB813B687E
:103FE0001B884FEA03239AB2BB891343BB817B89A9
:103FF00023F400537B813B689B894FEA03339AB2D9
:104000007B8913437B813B685B884FEA03339AB219
:104010007B8913437B817A684FF00003C4F201036C
:104020009A4206D07A684FF48063C4F201039A4240
:104030000BD1FB8923F48043FB813B681B8A4FEA49
:1040400083139AB2FB891343FB817B68FA899A80B8
:104050007B68BA899A833B689A687B681A647B6834
:104060007A891A8407F11407BD4680BC704700BFE7
:1040700080B485B000AF78600B467B804FF00003C2
:10408000FB817B681B8BFB81FB8923F00803FB8191
:10409000FA897B881343FB817B68FA891A8307F1CD
:1040A0001407BD4680BC704780B485B000AF78600F
:1040B0000B467B804FF00003FB817B681B8BFB81F1
:1040C000FB8923F40063FB817B884FEA03239AB2C8
:1040D000FB891343FB817B68FA891A8307F1140774
:1040E000BD4680BC704700BF80B485B000AF78602B
:1040F0000B467B804FF00003FB817B689B8BFB8131
:10410000FB8923F40063FB817B884FEA03239AB287
:10411000FB891343FB817B68FA899A8307F11407B3
:10412000BD4680BC704700BF81F0004102E000BF87
:1041300083F0004330B54FEA41044FEA430594EA67
:10414000050F08BF90EA020F1FBF54EA000C55EAA2
:10415000020C7FEA645C7FEA655C00F0E2804FEA73
:104160005454D4EB5555B8BF6D420CDD2C4480EA55
:10417000020281EA030382EA000083EA010180EA85
:10418000020281EA0303362D88BF30BD11F0004FD3
:104190004FEA01314FF4801C4CEA113102D0404209
:1041A00061EB410113F0004F4FEA03334CEA133344
:1041B00002D0524263EB430394EA050F00F0A7805C
:1041C000A4F10104D5F1200E0DDB02FA0EFC22FA57
:1041D00005F2801841F1000103FA0EF2801843FA4B
:1041E00005F359410EE0A5F120050EF1200E012A3C
:1041F00003FA0EFC28BF4CF0020C43FA05F3C0187A
:1042000051EBE37101F0004507D54FF0000EDCF1F2
:10421000000C7EEB00006EEB0101B1F5801F1BD39B
:10422000B1F5001F0CD349085FEA30004FEA3C0C9F
:1042300004F101044FEA445212F5800F80F09A8095
:10424000BCF1004F08BF5FEA500C50F1000041EB99
:10425000045141EA050130BD5FEA4C0C404141EB9D
:10426000010111F4801FA4F10104E9D191F0000FC4
:1042700004BF01460020B1FA81F308BF2033A3F147
:104280000B03B3F120020CDA0C3208DD02F1140C3E
:10429000C2F10C0201FA0CF021FA02F10CE002F179
:1042A0001402D8BFC2F1200C01FA02F120FA0CFC72
:1042B000DCBF41EA0C019040E41AA2BF01EB0451BB
:1042C000294330BD6FEA04041F3C1CDA0C340EDCB9
:1042D00004F11404C4F1200220FA04F001FA02F3FC
:1042E00040EA030021FA04F345EA030130BDC4F1BA
:1042F0000C04C4F1200220FA02F001FA04F340EAAF
:104300000300294630BD21FA04F0294630BD94F05F
:10431000000F83F4801306BF81F480110134013D46
:104320004EE77FEA645C18BF7FEA655C29D094EAB7
:10433000050F08BF90EA020F05D054EA000C04BF35
:104340001946104630BD91EA030F1EBF0021002020
:1043500030BD5FEA545C05D14000494128BF41F0BF
:10436000004130BD14F580043CBF01F5801130BD23
:1043700001F0004545F0FE4141F470014FF00000AE
:1043800030BD7FEA645C1ABF194610467FEA655C5F
:104390001CBF0B46024650EA013406BF52EA033501
:1043A00091EA030F41F4002130BD00BF90F0000FEF
:1043B00004BF0021704730B54FF4806404F132042B
:1043C0004FF000054FF0000150E700BF90F0000FE4
:1043D00004BF0021704730B54FF4806404F132040B
:1043E00010F0004548BF40424FF000013EE700BFDB
:1043F00042004FEAE2014FEA31014FEA02701FBF6B
:1044000012F07F4393F07F4F81F06051704792F03C
:10441000000F14BF93F07F4F704730B54FF46074B6
:1044200001F0004521F0004120E700BF50EA010201
:1044300008BF704730B54FF000050AE050EA0102AE
:1044400008BF704730B511F0004502D5404261EB1E
:1044500041014FF4806404F132045FEA915C3FF45F
:10446000DCAE4FF003025FEADC0C18BF03325FEAF8
:10447000DC0C18BF033202EBDC02C2F1200300FAAD
:1044800003FC20FA02F001FA03FE40EA0E0021FAD2
:1044900002F11444C1E600BF70B54FF0FF0C4CF4BC
:1044A000E06C1CEA11541DBF1CEA135594EA0C0F72
:1044B00095EA0C0F00F0DEF82C4481EA030621EAAD
:1044C0004C5123EA4C5350EA013518BF52EA0335E8
:1044D00041F4801143F4801338D0A0FB02CE4FF09A
:1044E0000005E1FB02E506F00042E0FB03E54FF0CA
:1044F0000006E1FB03569CF0000F18BF4EF0010EC2
:10450000A4F1FF04B6F5007F64F5407404D25FEABD
:104510004E0E6D4146EB060642EAC62141EA555170
:104520004FEAC52040EA5E504FEACE2EB4F1FD0CB2
:1045300088BFBCF5E06F1ED8BEF1004F08BF5FEA30
:10454000500E50F1000041EB045170BD06F00046E2
:1045500046EA010140EA020081EA0301B4EB5C048F
:10456000C2BFD4EB0C0541EA045170BD41F4801187
:104570004FF0000E013C00F3AB8014F1360FDEBFAC
:10458000002001F0004170BDC4F10004203C35DA88
:104590000C341BDC04F11404C4F1200500FA05F30B
:1045A00020FA04F001FA05F240EA020001F00042AC
:1045B00021F0004110EBD37021FA04F642EB060122
:1045C0005EEA430E08BF20EAD37070BDC4F10C044C
:1045D000C4F1200500FA04F320FA05F001FA04F210
:1045E00040EA020001F0004110EBD37041F10001FC
:1045F0005EEA430E08BF20EAD37070BDC4F1200507
:1046000000FA05F24EEA020E20FA04F301FA05F26E
:1046100043EA020321FA04F001F0004121FA04F216
:1046200020EA020000EBD3705EEA430E08BF20EAE6
:10463000D37070BD94F0000F0FD101F00046400020
:1046400041EB010111F4801F08BF013CF7D041EAA2
:10465000060195F0000F18BF704703F000465200A6
:1046600043EB030313F4801F08BF013DF7D043EA77
:104670000603704794EA0C0F0CEA135518BF95EA2D
:104680000C0F0CD050EA410618BF52EA4306D1D1B4
:1046900081EA030101F000414FF0000070BD50EAD3
:1046A000410606BF1046194652EA430619D094EA5D
:1046B0000C0F02D150EA013613D195EA0C0F05D147
:1046C00052EA03361CBF104619460AD181EA03019B
:1046D00001F0004141F0FE4141F470014FF0000053
:1046E00070BD41F0FE4141F4780170BD70B54FF0EE
:1046F000FF0C4CF4E06C1CEA11541DBF1CEA13556E
:1047000094EA0C0F95EA0C0F00F0A7F8A4EB05044F
:1047100081EA030E52EA03354FEA013100F0888046
:104720004FEA03334FF0805545EA131343EA12630F
:104730004FEA022245EA111545EA10654FEA0026C4
:104740000EF000419D4208BF964244F1FD0404F57D
:10475000407402D25B084FEA3202B61A65EB0305D9
:104760005B084FEA32024FF480104FF4002CB6EB96
:10477000020E75EB030E22BFB61A754640EA0C0016
:104780005B084FEA3202B6EB020E75EB030E22BF56
:10479000B61A754640EA5C005B084FEA3202B6EB97
:1047A000020E75EB030E22BFB61A754640EA9C0056
:1047B0005B084FEA3202B6EB020E75EB030E22BF26
:1047C000B61A754640EADC0055EA060E18D04FEAE4
:1047D000051545EA16754FEA06164FEAC30343EA84
:1047E00052734FEAC2025FEA1C1CC0D111F4801F51
:1047F0000BD141EA00014FF000004FF0004CB6E74A
:1048000011F4801F04BF01430020B4F1FD0C88BFE8
:10481000BCF5E06F3FF6AFAEB5EB030C04BFB6EBF3
:10482000020C5FEA500C50F1000041EB045170BDE6
:104830000EF0004E4EEA113114EB5C04C2BFD4EB13
:104840000C0541EA045170BD41F480114FF0000E97
:10485000013C90E645EA060E8DE60CEA135594EA13
:104860000C0F08BF95EA0C0F3FF43BAF94EA0C0F16
:104870000AD150EA01347FF434AF95EA0C0F7FF48B
:1048800025AF104619462CE795EA0C0F06D152EADF
:1048900003353FF4FDAE1046194622E750EA4106C3
:1048A00018BF52EA43067FF4C5AE50EA41047FF4D4
:1048B0000DAF52EA43057FF4EBAE12E74A0011D286
:1048C00012F5001211D20DD56FF47873B3EB62526A
:1048D0000ED44FEAC12343F0004343EA505323FA76
:1048E00002F070474FF00000704750EA013002D1EB
:1048F0004FF0FF3070474FF00000704740F658030C
:10490000C2F200030146186800F008B840F65803E8
:10491000C2F200030146186800F0D0BC2DE9F04F48
:1049200001F10B05162D83B0064627D935F0070592
:1049300027D4A94225D8304600F0D6FBB5F5FC7F38
:1049400023D2BA4F4FEAD50C07EBCC02D46894427D
:1049500000F0DE816368E268A16823F00300231899
:10496000CA605868916040F001025A60304600F019
:10497000BDFB0834204603B0BDE8F08F1025A942E6
:10498000D9D90C2434600024F4E75FEA552C00F0F8
:104990008B80BCF1040F00F255814FEA951707F1A7
:1049A000380E4FEA4E01A14F07EB8101CC68A142BE
:1049B00005D10CE0002A7CDAE468A14207D06368E4
:1049C00023F00300421B0F2AF4DD0EF1FF3E0EF12F
:1049D000010C964B3C6903F1080E744500F075819B
:1049E000616821F003014A1B0F2A00F35B81002A52
:1049F000C3F814E0C3F810E069DAB1F5007F80F085
:104A00002F81CA0803EBC2014FF00109921009FA85
:104A100002F95A688868E16049EA0209A060C3F8AF
:104A200004908C60C46001204FEAAC0400FA04F0EA
:104A3000484556D819EA000F07D12CF0030C400066
:104A400019EA000F0CF1040CF9D007EBCC094C4625
:104A5000E046E3689C4207D13AE1002A80F2628195
:104A6000DB689C4200F03481596821F003014A1B45
:104A70000F2AF2DD1C465919D86854F808CF8A501D
:104A800045F0010542F00102CCF80C00C0F808C066
:104A90005D6079613961C1F80CE0C1F808E04A60F5
:104AA000304600F023FB65E74FEAD50E4FEA4E0192
:104AB00079E72218E3685068A16840F0010050606F
:104AC000CB609960304600F011FB083452E7611862
:104AD00030464B6843F001024A6000F007FB08349F
:104AE00048E7BC68606820F00309A94504D3C5EB1A
:104AF00009030F2B00F38D804D4A4E4B1168186847
:104B0000013104EB090B05EB000300F05A8103F5BA
:104B100080500F3020F47F6121F00F0C6146304649
:104B20008DE8041000F0E4FAB0F1FF3F80469DE804
:104B3000041000F05281834500F20F81DFF800A1DC
:104B4000DAF80030C3456344CAF8003000F04A8107
:104B50001268013200F05781CBEB080B5B44CAF8B6
:104B6000003018F0070100F00B81C1F10800C1F519
:104B70008053804403F1080208EB0C010805030D83
:104B8000C3EB020B3046594600F0B2FA431C00F06A
:104B90004681C8EB00020BEB020141F00100DAF89C
:104BA0000030C7F808805B44BC42CAF80030C8F83F
:104BB000040015D0B9F10F0F40F2F2806168A9F13D
:104BC0000C0222F00702A01801F0010C42EA0C0EC0
:104BD00005210F2AC4F804E04160816000F21781CA
:104BE000154ABC681068834288BF1360134A116875
:104BF0008B4288BF1360636823F00300A842C5EBB3
:104C0000000301D30F2B04DC304600F06FFA0024C0
:104C1000B0E6621943F0010145F0010565603046D8
:104C20005160BA6000F062FA0834A3E62000002068
:104C30002C040020B8090020B4090020B00900208D
:104C4000BC090020BCF1140F7BD9BCF1540F00F259
:104C50008D804FEA153404F16E0E4FEA4E01A2E644
:104C6000480A042872D9142800F2AE8000F15B09CA
:104C70004FEA490207EB8200DFF8F0818368834244
:104C800000F081805A6822F00302914202D29B68B0
:104C90009842F7D1DA68D7F80490E260A360DC604C
:104CA0009460C0E6611942F0010045F001056560BD
:104CB000596119614860C1F80CE0C1F808E08A50F8
:104CC000304600F013FA083454E6D3F80490AAE60C
:104CD00008F10108083418F0030F7FF4BAAE494612
:104CE0001CF0030FA1F108040CF1FF3C00F0B080B0
:104CF0000968A142F4D07C684000A0423FF6F1AEC2
:104D000000283FF4EEAE044200F0A780C4469CE6C3
:104D100004F108036469A34208BF0CF1020C3FF4DC
:104D200058AE17E659181C464868DB6854F8082F37
:104D300040F001004860D3609A60304600F0D6F938
:104D400018E60CF15B0E4FEA4E012CE64FEA911883
:104D500008F138094FEA49028CE7BC423FF4EEAE55
:104D6000424CA468626822F0030047E7BCF5AA7FC2
:104D70001CD84FEAD53202F1770E4FEA4E0112E607
:104D80004FF48052F8E6D8F804004FEAA902012156
:104D900001FA02F242EA0009C8F804901A467CE7D8
:104DA0000122C8F804204446002027E740F254536B
:104DB0009C4524D84FEA954000F17C0E4FEA4E0105
:104DC000F1E503F1100CA9E654282CD84FEA113272
:104DD00002F16E094FEA49024CE7BC68616821F0B4
:104DE00003000BE74FEA0B50010D00297FF4B0AE32
:104DF000B8680CEB090141F001044460F0E6FC21C5
:104E00004FF07E0ECFE51A48C0F80080A9E604F105
:104E10000801184C304600F051FA2368E0E6012002
:104E20004FF0000BBBE6B0F5AA7F06D84FEAD133AE
:104E300003F177094FEA49021CE740F254539842C4
:104E40000FD84FEA914000F17C094FEA490211E77F
:104E50007C6824EA00047C604EE7400008F1040806
:104E600051E7FC224FF07E0904E700BF200000203C
:104E70002C040020BC0900200F2A2DE9F00340F289
:104E8000958041EA00039B0740F092800C68046023
:104E90004D6845608E68A2F110038660CC681D469F
:104EA0000F2DC460C3F3001601F1100400F11003CC
:104EB00022D966B126681E6066685E60A6689E603C
:104EC000E668103DDE60103410330F2D14D92668CB
:104ED0001E6066685E60A6689E60E668DE602669A1
:104EE0001E6166695E61A6699E61E669203DDE61BC
:104EF000203420330F2DEAD8A2F1100323F00F0441
:104F000002F00F031034032B00EB0408214451D9A5
:104F1000A3F104090B464FEA990901EB890C53F8F8
:104F2000046BC1EB0C0544460CF1040C634544F8DA
:104F3000046BC5F3800512D02DB153F8045B6345B3
:104F400044F8045B0BD01E46254656F8047B45F812
:104F5000047B5F68331D67602C1D6345F3D109F145
:104F600001039C00091902F003024444DAB123460C
:104F70000D7803F8015BA218E4431419934204F07E
:104F8000010410D02CB111F8014F03F8014B9342EA
:104F900009D04D781C4604F8015B8D785D70631C68
:104FA00002319342F5D1BDE8F00370470446DDE7D6
:104FB0000446DCE744461A46D8E700BFF0B484074D
:104FC000034600F08E80541E002A00F08880E5071A
:104FD000CEB211D41A46671E02F8016B134615466D
:104FE00092070FD0002C7AD003F8016B9A073C4649
:104FF0001D4607D0013CEDE7034603F8016B9A0715
:105000001D46F7D1032C52D9CEB246EA06270F2C03
:1050100047EA07432DD9A4F1100217460F2FC2F318
:1050200000162B606B60AB60EB6005F1100216D9C7
:105030003EB1103F136053609360D36010320F2F66
:105040000DD9203F02F11006136053609360D360C6
:10505000136153619361D36120320F2FF1D8A4F112
:10506000100222F00F0204F00F041032032C15443A
:105070001DD9271F3E462A46032E42F8043BC7F39C
:1050800080070DD927B1043E032E42F8043B07D90F
:105090001746083E47F8043B53603A1D032EF7D8E5
:1050A000231F23F00302131D04F00304ED18B4B111
:1050B0002B46C9B203F8011B2C19ED436219A34218
:1050C00002F001050BD01DB103F8011BA34206D06D
:1050D0001A4602F8011B5970531CA342F8D1F0BCC8
:1050E0007047054614468DE7704700BF704700BF04
:1050F00038B5074C0023054608462360FDF75CFDE4
:10510000431C00D038BD21680029FBD0296038BD80
:10511000040C002041EA00039B07F0B475D1032A78
:1051200073D90B46161F53F8045BA5F1013727EA24
:10513000050717F0803F0446C6F3800C31D10446C2
:10514000032E324644F8045B2AD9BCF1000F0AD082
:10515000194653F8045BA5F1013626EA050616F058
:10516000803F18D01DE01E46194656F8045BA5F195
:10517000013727EA050717F0803F12D144F8045B96
:105180005D68A5F10133314623EA0506043A0B1D9B
:1051900016F0803F05D1043A032A44F8045BE2D8B4
:1051A000194682B30D78013A04F8015B9DB112F003
:1051B000010F23462BD11C462AB311F8015F013A97
:1051C00004F8015B3DB111F8015F5D70631C013AA9
:1051D0001C46002DEFD1B2B12346002103F8011B7C
:1051E000A518E4432A19AB4202F001040BD01CB10C
:1051F00003F8011BAB4206D01A4602F8011B597096
:10520000531CAB42F8D1F0BC70470446C9E72346B3
:1052100011F8015F03F8015B013A1C46002DCAD169
:10522000D9E700BFF8B5224D0F460446FFF75CFFF3
:10523000AB685E6826F0030606F6EF70C11B0A0B2A
:10524000571E3F03B7F5805F07DB00212046FFF7BD
:105250004FFFAB689919884204D02046FFF746FFFC
:105260000020F8BD79422046FFF742FF01300DD003
:10527000104BA8681A68F61B46F00106D71B46605B
:1052800020461F60FFF732FF0120F8BD00212046B5
:10529000FFF72EFFAB68C21A0F2ADEDD0649096848
:1052A000401A044942F0010208605A60D5E700BF85
:1052B00020000020BC0900202C0400202DE9F04132
:1052C0000D460646002955D0FFF70EFF55F8041C81
:1052D000DFF86CC1A5F1080421F00103E218DCF845
:1052E00008005768904227F0030765D011F00101CC
:1052F000576032D00021D0194068C00706D4DB19AE
:10530000906800294AD0D268C260906043F00100E2
:105310006060E350E1B9B3F5007F2DD35A0A042A47
:1053200066D89809383042000CEB820E4449DEF80A
:105330000820724562D0506820F003018B4202D2EF
:1053400092689645F7D1D068E060A260D46084602E
:105350003046BDE8F041FFF7C9BE55F8085C641B54
:105360000CF10808A06840452B443FD0E568C560B3
:10537000A860C0E7BDE8F081DD080CEBC502DCF8F1
:1053800004009168E260AB10012505FA03F31843AD
:10539000A160CCF804009460CC60D9E7294DA84204
:1053A000B1D143F00102CCF81440CCF81040E060D9
:1053B000A0606260E350CBE7FF18CB0707D455F835
:1053C000081C641A7F18E368A068C36098601E4ACE
:1053D000CCF80840116847F001038F426360B7D3EF
:1053E0001A4A30461168FFF71DFFB1E7012182E735
:1053F000142A0CD802F15B00420095E74B6880103C
:10540000012505FA00F003434B6010469CE7542A3F
:1054100003D8180B6E30420086E7B2F5AA7F03D896
:10542000D80B773042007FE740F254518A4203D8CC
:10543000980C7C30420077E7FC227E2074E700BFA6
:10544000200000202800002028040020B8090020A7
:10545000534552564F0000004241545445525900A2
:10546000414343454C45524F0000000049444C45E0
:10547000000000000D0A0000257520256320252D61
:10548000313673203020302525202535750D0A0052
:10549000257520256320252D313673202531307563
:1054A000202533752525202535750D0A00000000BF
:1054B000257520256320252D313673202531307543
:1054C000203C312525202535750D0A0043000000BC
:1054D00096000000FFFFFFFF007A030A00000000B3
:1054E000000000000102030406070809AAAAAAAAEC
:1054F000000000000000000020000020200000202C
:10550000280000202800002030000020300000206B
:10551000380000203800002040000020400000201B
:1055200048000020480000205000002050000020CB
:10553000580000205800002060000020600000207B
:10554000680000206800002070000020700000202B
:1055500078000020780000208000002080000020DB
:10556000880000208800002090000020900000208B
:105570009800002098000020A0000020A00000203B
:10558000A8000020A8000020B0000020B0000020EB
:10559000B8000020B8000020C0000020C00000209B
:1055A000C8000020C8000020D0000020D00000204B
:1055B000D8000020D8000020E0000020E0000020FB
:1055C000E8000020E8000020F0000020F0000020AB
:1055D000F8000020F8000020000100200001002059
:1055E0000801002008010020100100201001002007
:1055F00018010020180100202001002020010020B7
:105600002801002028010020300100203001002066
:105610003801002038010020400100204001002016
:1056200048010020480100205001002050010020C6
:105630005801002058010020600100206001002076
:105640006801002068010020700100207001002026
:1056500078010020780100208001002080010020D6
:105660008801002088010020900100209001002086
:105670009801002098010020A0010020A001002036
:10568000A8010020A8010020B0010020B0010020E6
:10569000B8010020B8010020C0010020C001002096
:1056A000C8010020C8010020D0010020D001002046
:1056B000D8010020D8010020E0010020E0010020F6
:1056C000E8010020E8010020F0010020F0010020A6
:1056D000F8010020F8010020000200200002002054
:1056E0000802002008020020100200201002002002
:1056F00018020020180200202002002020020020B2
:105700002802002028020020300200203002002061
:105710003802002038020020400200204002002011
:1057200048020020480200205002002050020020C1
:105730005802002058020020600200206002002071
:105740006802002068020020700200207002002021
:1057500078020020780200208002002080020020D1
:105760008802002088020020900200209002002081
:105770009802002098020020A0020020A002002031
:10578000A8020020A8020020B0020020B0020020E1
:10579000B8020020B8020020C0020020C002002091
:1057A000C8020020C8020020D0020020D002002041
:1057B000D8020020D8020020E0020020E0020020F1
:1057C000E8020020E8020020F0020020F0020020A1
:1057D000F8020020F802002000030020000300204F
:1057E00008030020080300201003002010030020FD
:1057F00018030020180300202003002020030020AD
:10580000280300202803002030030020300300205C
:10581000380300203803002040030020400300200C
:1058200048030020480300205003002050030020BC
:10583000580300205803002060030020600300206C
:10584000680300206803002070030020700300201C
:1058500078030020780300208003002080030020CC
:10586000880300208803002090030020900300207C
:105870009803002098030020A0030020A00300202C
:10588000A8030020A8030020B0030020B0030020DC
:10589000B8030020B8030020C0030020C00300208C
:1058A000C8030020C8030020D0030020D00300203C
:1058B000D8030020D8030020E0030020E0030020EC
:1058C000E8030020E8030020F0030020F00300209C
:1058D000F8030020F803002000040020000400204A
:1058E00008040020080400201004002010040020F8
:1058F000180400201804002000000200FFFFFFFF32
:10590000000000001C07002084070020EC07002096
:105910000000000000000000000000000000000087
:105920000000000000000000000000000000000077
:1059300000000000CC54000800000000000000003F
:105940000000000000000000000000000000000057
:105950000000000000000000000000000000000047
:105960000000000000000000000000000000000037
:105970000000000000000000000000000000000027
:105980000000000000000000000000000000000017
:105990000000000000000000000000000000000007
:1059A00000000000000000000100000000000000F6
:1059B0000E33CDAB34126DE6ECDE05000B000000BB
:1059C00000000000000000000000000000000000D7
:1059D00000000000000000000000000000000000C7
:1059E00000000000000000000000000000000000B7
:1059F00000000000000000000000000000000000A7
:0C5D200000000000000000003004002023
:0400000508000000EF
:00000001FF
